{
  "address": "0x8AeA302f88269330DF0DA6e72B628DE42987f3a2",
  "abi": [
    {
      "anonymous": false,
      "inputs": [
        {
          "indexed": true,
          "internalType": "address",
          "name": "account",
          "type": "address"
        },
        {
          "indexed": true,
          "internalType": "address",
          "name": "operator",
          "type": "address"
        },
        {
          "indexed": false,
          "internalType": "bool",
          "name": "approved",
          "type": "bool"
        }
      ],
      "name": "ApprovalForAll",
      "type": "event"
    },
    {
      "anonymous": false,
      "inputs": [
        {
          "indexed": false,
          "internalType": "uint8",
          "name": "version",
          "type": "uint8"
        }
      ],
      "name": "Initialized",
      "type": "event"
    },
    {
      "anonymous": false,
      "inputs": [
        {
          "indexed": true,
          "internalType": "bytes32",
          "name": "role",
          "type": "bytes32"
        },
        {
          "indexed": true,
          "internalType": "bytes32",
          "name": "previousAdminRole",
          "type": "bytes32"
        },
        {
          "indexed": true,
          "internalType": "bytes32",
          "name": "newAdminRole",
          "type": "bytes32"
        }
      ],
      "name": "RoleAdminChanged",
      "type": "event"
    },
    {
      "anonymous": false,
      "inputs": [
        {
          "indexed": true,
          "internalType": "bytes32",
          "name": "role",
          "type": "bytes32"
        },
        {
          "indexed": true,
          "internalType": "address",
          "name": "account",
          "type": "address"
        },
        {
          "indexed": true,
          "internalType": "address",
          "name": "sender",
          "type": "address"
        }
      ],
      "name": "RoleGranted",
      "type": "event"
    },
    {
      "anonymous": false,
      "inputs": [
        {
          "indexed": true,
          "internalType": "bytes32",
          "name": "role",
          "type": "bytes32"
        },
        {
          "indexed": true,
          "internalType": "address",
          "name": "account",
          "type": "address"
        },
        {
          "indexed": true,
          "internalType": "address",
          "name": "sender",
          "type": "address"
        }
      ],
      "name": "RoleRevoked",
      "type": "event"
    },
    {
      "anonymous": false,
      "inputs": [
        {
          "indexed": true,
          "internalType": "address",
          "name": "oldSigner",
          "type": "address"
        },
        {
          "indexed": true,
          "internalType": "address",
          "name": "_signer",
          "type": "address"
        }
      ],
      "name": "SignerChanged",
      "type": "event"
    },
    {
      "anonymous": false,
      "inputs": [
        {
          "indexed": true,
          "internalType": "address",
          "name": "operator",
          "type": "address"
        },
        {
          "indexed": true,
          "internalType": "address",
          "name": "from",
          "type": "address"
        },
        {
          "indexed": true,
          "internalType": "address",
          "name": "to",
          "type": "address"
        },
        {
          "indexed": false,
          "internalType": "uint256[]",
          "name": "ids",
          "type": "uint256[]"
        },
        {
          "indexed": false,
          "internalType": "uint256[]",
          "name": "values",
          "type": "uint256[]"
        }
      ],
      "name": "TransferBatch",
      "type": "event"
    },
    {
      "anonymous": false,
      "inputs": [
        {
          "indexed": true,
          "internalType": "address",
          "name": "operator",
          "type": "address"
        },
        {
          "indexed": true,
          "internalType": "address",
          "name": "from",
          "type": "address"
        },
        {
          "indexed": true,
          "internalType": "address",
          "name": "to",
          "type": "address"
        },
        {
          "indexed": false,
          "internalType": "uint256",
          "name": "id",
          "type": "uint256"
        },
        {
          "indexed": false,
          "internalType": "uint256",
          "name": "value",
          "type": "uint256"
        }
      ],
      "name": "TransferSingle",
      "type": "event"
    },
    {
      "anonymous": false,
      "inputs": [
        {
          "indexed": false,
          "internalType": "string",
          "name": "value",
          "type": "string"
        },
        {
          "indexed": true,
          "internalType": "uint256",
          "name": "id",
          "type": "uint256"
        }
      ],
      "name": "URI",
      "type": "event"
    },
    {
      "inputs": [],
      "name": "ADMIN_ROLE",
      "outputs": [
        {
          "internalType": "bytes32",
          "name": "",
          "type": "bytes32"
        }
      ],
      "stateMutability": "view",
      "type": "function"
    },
    {
      "inputs": [],
      "name": "DEFAULT_ADMIN_ROLE",
      "outputs": [
        {
          "internalType": "bytes32",
          "name": "",
          "type": "bytes32"
        }
      ],
      "stateMutability": "view",
      "type": "function"
    },
    {
      "inputs": [],
      "name": "MINTER_ROLE",
      "outputs": [
        {
          "internalType": "bytes32",
          "name": "",
          "type": "bytes32"
        }
      ],
      "stateMutability": "view",
      "type": "function"
    },
    {
      "inputs": [
        {
          "internalType": "address",
          "name": "account",
          "type": "address"
        },
        {
          "internalType": "uint256",
          "name": "id",
          "type": "uint256"
        }
      ],
      "name": "balanceOf",
      "outputs": [
        {
          "internalType": "uint256",
          "name": "",
          "type": "uint256"
        }
      ],
      "stateMutability": "view",
      "type": "function"
    },
    {
      "inputs": [
        {
          "internalType": "address[]",
          "name": "accounts",
          "type": "address[]"
        },
        {
          "internalType": "uint256[]",
          "name": "ids",
          "type": "uint256[]"
        }
      ],
      "name": "balanceOfBatch",
      "outputs": [
        {
          "internalType": "uint256[]",
          "name": "",
          "type": "uint256[]"
        }
      ],
      "stateMutability": "view",
      "type": "function"
    },
    {
      "inputs": [
        {
          "internalType": "address",
          "name": "account",
          "type": "address"
        },
        {
          "internalType": "uint256",
          "name": "id",
          "type": "uint256"
        },
        {
          "internalType": "uint256",
          "name": "value",
          "type": "uint256"
        }
      ],
      "name": "burn",
      "outputs": [],
      "stateMutability": "nonpayable",
      "type": "function"
    },
    {
      "inputs": [
        {
          "internalType": "address",
          "name": "account",
          "type": "address"
        },
        {
          "internalType": "uint256[]",
          "name": "ids",
          "type": "uint256[]"
        },
        {
          "internalType": "uint256[]",
          "name": "values",
          "type": "uint256[]"
        }
      ],
      "name": "burnBatch",
      "outputs": [],
      "stateMutability": "nonpayable",
      "type": "function"
    },
    {
      "inputs": [
        {
          "internalType": "address",
          "name": "to",
          "type": "address"
        },
        {
          "internalType": "uint256",
          "name": "tokenId",
          "type": "uint256"
        },
        {
          "internalType": "uint256",
          "name": "amount",
          "type": "uint256"
        },
        {
          "internalType": "string",
          "name": "tokenUri",
          "type": "string"
        }
      ],
      "name": "create",
      "outputs": [],
      "stateMutability": "nonpayable",
      "type": "function"
    },
    {
      "inputs": [
        {
          "internalType": "address",
          "name": "to",
          "type": "address"
        },
        {
          "internalType": "uint256",
          "name": "tokenId",
          "type": "uint256"
        },
        {
          "internalType": "uint256",
          "name": "amount",
          "type": "uint256"
        },
        {
          "internalType": "string",
          "name": "tokenUri",
          "type": "string"
        }
      ],
      "name": "createMessage",
      "outputs": [
        {
          "internalType": "bytes32",
          "name": "",
          "type": "bytes32"
        }
      ],
      "stateMutability": "view",
      "type": "function"
    },
    {
      "inputs": [
        {
          "internalType": "address",
          "name": "to",
          "type": "address"
        },
        {
          "internalType": "uint256",
          "name": "tokenId",
          "type": "uint256"
        },
        {
          "internalType": "uint256",
          "name": "amount",
          "type": "uint256"
        },
        {
          "internalType": "string",
          "name": "tokenUri",
          "type": "string"
        },
        {
          "internalType": "bytes",
          "name": "signature",
          "type": "bytes"
        }
      ],
      "name": "createWithSignature",
      "outputs": [],
      "stateMutability": "nonpayable",
      "type": "function"
    },
    {
      "inputs": [
        {
          "internalType": "uint256",
          "name": "id",
          "type": "uint256"
        }
      ],
      "name": "exists",
      "outputs": [
        {
          "internalType": "bool",
          "name": "",
          "type": "bool"
        }
      ],
      "stateMutability": "view",
      "type": "function"
    },
    {
      "inputs": [
        {
          "internalType": "bytes32",
          "name": "role",
          "type": "bytes32"
        }
      ],
      "name": "getRoleAdmin",
      "outputs": [
        {
          "internalType": "bytes32",
          "name": "",
          "type": "bytes32"
        }
      ],
      "stateMutability": "view",
      "type": "function"
    },
    {
      "inputs": [
        {
          "internalType": "bytes32",
          "name": "role",
          "type": "bytes32"
        },
        {
          "internalType": "uint256",
          "name": "index",
          "type": "uint256"
        }
      ],
      "name": "getRoleMember",
      "outputs": [
        {
          "internalType": "address",
          "name": "",
          "type": "address"
        }
      ],
      "stateMutability": "view",
      "type": "function"
    },
    {
      "inputs": [
        {
          "internalType": "bytes32",
          "name": "role",
          "type": "bytes32"
        }
      ],
      "name": "getRoleMemberCount",
      "outputs": [
        {
          "internalType": "uint256",
          "name": "",
          "type": "uint256"
        }
      ],
      "stateMutability": "view",
      "type": "function"
    },
    {
      "inputs": [
        {
          "internalType": "bytes32",
          "name": "role",
          "type": "bytes32"
        },
        {
          "internalType": "address",
          "name": "account",
          "type": "address"
        }
      ],
      "name": "grantRole",
      "outputs": [],
      "stateMutability": "nonpayable",
      "type": "function"
    },
    {
      "inputs": [
        {
          "internalType": "bytes32",
          "name": "role",
          "type": "bytes32"
        },
        {
          "internalType": "address",
          "name": "account",
          "type": "address"
        }
      ],
      "name": "hasRole",
      "outputs": [
        {
          "internalType": "bool",
          "name": "",
          "type": "bool"
        }
      ],
      "stateMutability": "view",
      "type": "function"
    },
    {
      "inputs": [
        {
          "internalType": "address",
          "name": "signer_",
          "type": "address"
        },
        {
          "internalType": "string",
          "name": "baseUri_",
          "type": "string"
        }
      ],
      "name": "initialize",
      "outputs": [],
      "stateMutability": "nonpayable",
      "type": "function"
    },
    {
      "inputs": [
        {
          "internalType": "address",
          "name": "account",
          "type": "address"
        },
        {
          "internalType": "address",
          "name": "operator",
          "type": "address"
        }
      ],
      "name": "isApprovedForAll",
      "outputs": [
        {
          "internalType": "bool",
          "name": "",
          "type": "bool"
        }
      ],
      "stateMutability": "view",
      "type": "function"
    },
    {
      "inputs": [
        {
          "internalType": "uint256",
          "name": "tokenId",
          "type": "uint256"
        }
      ],
      "name": "isTokenDefined",
      "outputs": [
        {
          "internalType": "bool",
          "name": "",
          "type": "bool"
        }
      ],
      "stateMutability": "view",
      "type": "function"
    },
    {
      "inputs": [
        {
          "internalType": "uint256",
          "name": "tokenId",
          "type": "uint256"
        },
        {
          "internalType": "uint256",
          "name": "amount",
          "type": "uint256"
        }
      ],
      "name": "mint",
      "outputs": [],
      "stateMutability": "nonpayable",
      "type": "function"
    },
    {
      "inputs": [
        {
          "internalType": "address",
          "name": "to",
          "type": "address"
        },
        {
          "internalType": "uint256",
          "name": "tokenId",
          "type": "uint256"
        },
        {
          "internalType": "uint256",
          "name": "amount",
          "type": "uint256"
        }
      ],
      "name": "mintTo",
      "outputs": [],
      "stateMutability": "nonpayable",
      "type": "function"
    },
    {
      "inputs": [
        {
          "internalType": "address",
          "name": "to",
          "type": "address"
        },
        {
          "internalType": "uint256",
          "name": "tokenId",
          "type": "uint256"
        },
        {
          "internalType": "uint256",
          "name": "amount",
          "type": "uint256"
        },
        {
          "internalType": "bytes",
          "name": "signature",
          "type": "bytes"
        }
      ],
      "name": "mintToWithSignature",
      "outputs": [],
      "stateMutability": "nonpayable",
      "type": "function"
    },
    {
      "inputs": [
        {
          "internalType": "uint256",
          "name": "tokenId",
          "type": "uint256"
        },
        {
          "internalType": "uint256",
          "name": "amount",
          "type": "uint256"
        },
        {
          "internalType": "bytes",
          "name": "signature",
          "type": "bytes"
        }
      ],
      "name": "mintWithSignature",
      "outputs": [],
      "stateMutability": "nonpayable",
      "type": "function"
    },
    {
      "inputs": [
        {
          "internalType": "bytes32",
          "name": "role",
          "type": "bytes32"
        },
        {
          "internalType": "address",
          "name": "account",
          "type": "address"
        }
      ],
      "name": "renounceRole",
      "outputs": [],
      "stateMutability": "nonpayable",
      "type": "function"
    },
    {
      "inputs": [
        {
          "internalType": "bytes32",
          "name": "role",
          "type": "bytes32"
        },
        {
          "internalType": "address",
          "name": "account",
          "type": "address"
        }
      ],
      "name": "revokeRole",
      "outputs": [],
      "stateMutability": "nonpayable",
      "type": "function"
    },
    {
      "inputs": [
        {
          "internalType": "address",
          "name": "from",
          "type": "address"
        },
        {
          "internalType": "address",
          "name": "to",
          "type": "address"
        },
        {
          "internalType": "uint256[]",
          "name": "ids",
          "type": "uint256[]"
        },
        {
          "internalType": "uint256[]",
          "name": "amounts",
          "type": "uint256[]"
        },
        {
          "internalType": "bytes",
          "name": "data",
          "type": "bytes"
        }
      ],
      "name": "safeBatchTransferFrom",
      "outputs": [],
      "stateMutability": "nonpayable",
      "type": "function"
    },
    {
      "inputs": [
        {
          "internalType": "address",
          "name": "from",
          "type": "address"
        },
        {
          "internalType": "address",
          "name": "to",
          "type": "address"
        },
        {
          "internalType": "uint256",
          "name": "id",
          "type": "uint256"
        },
        {
          "internalType": "uint256",
          "name": "amount",
          "type": "uint256"
        },
        {
          "internalType": "bytes",
          "name": "data",
          "type": "bytes"
        }
      ],
      "name": "safeTransferFrom",
      "outputs": [],
      "stateMutability": "nonpayable",
      "type": "function"
    },
    {
      "inputs": [
        {
          "internalType": "address",
          "name": "operator",
          "type": "address"
        },
        {
          "internalType": "bool",
          "name": "approved",
          "type": "bool"
        }
      ],
      "name": "setApprovalForAll",
      "outputs": [],
      "stateMutability": "nonpayable",
      "type": "function"
    },
    {
      "inputs": [
        {
          "internalType": "address",
          "name": "signer_",
          "type": "address"
        }
      ],
      "name": "setSigner",
      "outputs": [],
      "stateMutability": "nonpayable",
      "type": "function"
    },
    {
      "inputs": [
        {
          "internalType": "uint256",
          "name": "id",
          "type": "uint256"
        },
        {
          "internalType": "string",
          "name": "tokenUri",
          "type": "string"
        }
      ],
      "name": "setTokenUri",
      "outputs": [],
      "stateMutability": "nonpayable",
      "type": "function"
    },
    {
      "inputs": [],
      "name": "signer",
      "outputs": [
        {
          "internalType": "address",
          "name": "",
          "type": "address"
        }
      ],
      "stateMutability": "view",
      "type": "function"
    },
    {
      "inputs": [
        {
          "internalType": "bytes4",
          "name": "interfaceId",
          "type": "bytes4"
        }
      ],
      "name": "supportsInterface",
      "outputs": [
        {
          "internalType": "bool",
          "name": "",
          "type": "bool"
        }
      ],
      "stateMutability": "view",
      "type": "function"
    },
    {
      "inputs": [
        {
          "internalType": "uint256",
          "name": "id",
          "type": "uint256"
        }
      ],
      "name": "totalSupply",
      "outputs": [
        {
          "internalType": "uint256",
          "name": "",
          "type": "uint256"
        }
      ],
      "stateMutability": "view",
      "type": "function"
    },
    {
      "inputs": [
        {
          "internalType": "uint256",
          "name": "id",
          "type": "uint256"
        }
      ],
      "name": "uri",
      "outputs": [
        {
          "internalType": "string",
          "name": "",
          "type": "string"
        }
      ],
      "stateMutability": "view",
      "type": "function"
    },
    {
      "inputs": [
        {
          "internalType": "address",
          "name": "to",
          "type": "address"
        },
        {
          "internalType": "uint256",
          "name": "tokenId",
          "type": "uint256"
        },
        {
          "internalType": "uint256",
          "name": "amount",
          "type": "uint256"
        },
        {
          "internalType": "string",
          "name": "hash",
          "type": "string"
        },
        {
          "internalType": "bytes",
          "name": "signature",
          "type": "bytes"
        }
      ],
      "name": "validateSignature",
      "outputs": [
        {
          "internalType": "bytes32",
          "name": "",
          "type": "bytes32"
        }
      ],
      "stateMutability": "view",
      "type": "function"
    },
    {
      "inputs": [],
      "name": "withdraw",
      "outputs": [],
      "stateMutability": "nonpayable",
      "type": "function"
    }
  ],
  "transactionHash": "0xc68ddefaccd901a37177e92bfeee9746c395d55ca78ecb8b748294325c9c18b4",
  "args": [],
  "numDeployments": 1,
  "solcInputHash": "54a6ac97521c07fe7d646da42abeeb0f",
  "bytecode": "0x608060405234801561001057600080fd5b50613994806100206000396000f3fe608060405234801561001057600080fd5b506004361061025b5760003560e01c806356d1699b11610145578063b419c807116100bd578063d547741f1161008c578063f242432a11610071578063f242432a146105b2578063f399e22e146105c5578063f5298aca146105d857600080fd5b8063d547741f14610563578063e985e9c51461057657600080fd5b8063b419c807146104f6578063bd85b03914610509578063ca15c87314610529578063d53913931461053c57600080fd5b806375b238fc1161011457806391d14854116100f957806391d14854146104a2578063a217fddf146104db578063a22cb465146104e357600080fd5b806375b238fc146104685780639010d07c1461048f57600080fd5b806356d1699b1461041c57806357f7789e1461042f5780636b20c454146104425780636c19e7831461045557600080fd5b80632baf2acb116101d857806336568abe116101a7578063496c2d281161018c578063496c2d28146103c75780634e1273f4146103da5780634f558e79146103fa57600080fd5b806336568abe146103ac5780633ccfd60b146103bf57600080fd5b80632baf2acb146103605780632eb2c2d6146103735780632f2ff15d14610386578063308b40361461039957600080fd5b80631b2ef1ca1161022f578063238ac93311610214578063238ac93314610304578063248a9ca31461032a5780632b4e97d91461034d57600080fd5b80631b2ef1ca146102de57806320d4f41b146102f157600080fd5b8062fdd58e1461026057806301ffc9a7146102865780630e89341c146102a957806312016ce0146102c9575b600080fd5b61027361026e366004612eb5565b6105eb565b6040519081526020015b60405180910390f35b610299610294366004612ef5565b610699565b604051901515815260200161027d565b6102bc6102b7366004612f12565b6106a4565b60405161027d9190612f83565b6102dc6102d736600461304d565b610747565b005b6102dc6102ec3660046130ae565b6107f6565b6102736102ff36600461304d565b610805565b61015f546001600160a01b03165b6040516001600160a01b03909116815260200161027d565b610273610338366004612f12565b600090815260fb602052604090206001015490565b61027361035b3660046130d0565b610840565b6102dc61036e366004613158565b610979565b6102dc610381366004613220565b610aa6565b6102dc61039436600461329a565b610b32565b6102dc6103a736600461304d565b610b5c565b6102dc6103ba36600461329a565b610c81565b6102dc610d09565b6102dc6103d53660046132c6565b610db5565b6103ed6103e8366004613316565b610dc1565b60405161027d919061341c565b610299610408366004612f12565b600090815260c96020526040902054151590565b6102dc61042a3660046130d0565b610eff565b6102dc61043d36600461342f565b610f9f565b6102dc61045036600461346c565b611026565b6102dc6104633660046134d6565b6110b0565b6102737fa49807205ce4d355092ef5a8a18f56e8913cf4a201fbe287825b095693c2177581565b61031261049d3660046130ae565b61118d565b6102996104b036600461329a565b600091825260fb602090815260408084206001600160a01b0393909316845291905290205460ff1690565b610273600081565b6102dc6104f13660046134f1565b6111ad565b610299610504366004612f12565b6111b8565b610273610517366004612f12565b600090815260c9602052604090205490565b610273610537366004612f12565b6111df565b6102737f9f2df0fed2c77648de5860a4cc508cd0818c85b8b8a1ab4ceeef8d981c8956a681565b6102dc61057136600461329a565b6111f7565b61029961058436600461352d565b6001600160a01b03918216600090815260666020908152604080832093909416825291909152205460ff1690565b6102dc6105c0366004613557565b61121c565b6102dc6105d33660046135bc565b6112a8565b6102dc6105e6366004613158565b611440565b60006001600160a01b03831661066e5760405162461bcd60e51b815260206004820152602a60248201527f455243313135353a2061646472657373207a65726f206973206e6f742061207660448201527f616c6964206f776e65720000000000000000000000000000000000000000000060648201526084015b60405180910390fd5b5060008181526065602090815260408083206001600160a01b03861684529091529020545b92915050565b6000610693826114ca565b6000818152610160602052604090208054606091906106c2906135f4565b80601f01602080910402602001604051908101604052809291908181526020018280546106ee906135f4565b801561073b5780601f106107105761010080835404028352916020019161073b565b820191906000526020600020905b81548152906001019060200180831161071e57829003601f168201915b50505050509050919050565b82610751816111b8565b6107c35760405162461bcd60e51b815260206004820152603560248201527f546f6b656e466f7267653131353576335570677261646561626c653a20746f6b60448201527f656e206973206e6f7420646566696e65642079657400000000000000000000006064820152608401610665565b6107df8585856040518060200160405280600081525086610840565b5060606107ee86868684611508565b505050505050565b610801338383610979565b5050565b6000848484843060405160200161082095949392919061362f565b604051602081830303815290604052805190602001209050949350505050565b6000806108a561085288888888610805565b6040517f19457468657265756d205369676e6564204d6573736167653a0a3332000000006020820152603c8101829052600090605c01604051602081830303815290604052805190602001209050919050565b90506108ba61015f546001600160a01b031690565b6001600160a01b03166108cd8285611640565b6001600160a01b03161461096f5760405162461bcd60e51b815260206004820152605860248201527f546f6b656e466f7267653131353576335570677261646561626c653a2045697460448201527f686572207369676e61747572652069732077726f6e67206f7220706172616d6560648201527f746572732068617665206265656e20636f727275707465640000000000000000608482015260a401610665565b9695505050505050565b6109a37f9f2df0fed2c77648de5860a4cc508cd0818c85b8b8a1ab4ceeef8d981c8956a6336104b0565b610a155760405162461bcd60e51b815260206004820152603660248201527f546f6b656e466f7267653131353576335570677261646561626c653a2063616c60448201527f6c657220686173206e6f206d696e74657220726f6c65000000000000000000006064820152608401610665565b81610a1f816111b8565b610a915760405162461bcd60e51b815260206004820152603560248201527f546f6b656e466f7267653131353576335570677261646561626c653a20746f6b60448201527f656e206973206e6f7420646566696e65642079657400000000000000000000006064820152608401610665565b6060610a9f85858584611508565b5050505050565b6001600160a01b038516331480610ac25750610ac28533610584565b610b255760405162461bcd60e51b815260206004820152602e60248201527f455243313135353a2063616c6c6572206973206e6f7420746f6b656e206f776e60448201526d195c881bdc88185c1c1c9bdd995960921b6064820152608401610665565b610a9f858585858561165c565b600082815260fb6020526040902060010154610b4d816118c3565b610b5783836118d0565b505050565b610b867f9f2df0fed2c77648de5860a4cc508cd0818c85b8b8a1ab4ceeef8d981c8956a6336104b0565b610bf85760405162461bcd60e51b815260206004820152603660248201527f546f6b656e466f7267653131353576335570677261646561626c653a2063616c60448201527f6c657220686173206e6f206d696e74657220726f6c65000000000000000000006064820152608401610665565b82610c02816111b8565b15610c625760405162461bcd60e51b815260206004820152602a60248201527f546f6b656e466f7267653131353576333a20746f6b656e20697320616c726561604482015269191e481919599a5b995960b21b6064820152608401610665565b6060610c7086868684611508565b8251156107ee576107ee85846118f3565b6001600160a01b0381163314610cff5760405162461bcd60e51b815260206004820152602f60248201527f416363657373436f6e74726f6c3a2063616e206f6e6c792072656e6f756e636560448201527f20726f6c657320666f722073656c6600000000000000000000000000000000006064820152608401610665565b6108018282611913565b610d146000336104b0565b610d865760405162461bcd60e51b815260206004820152603e60248201527f546f6b656e466f7267653131353576335570677261646561626c653a2063616c60448201527f6c6572206973206e6f7420746865206f776e6572206e6f722061646d696e00006064820152608401610665565b6040514790339082156108fc029083906000818181858888f19350505050158015610801573d6000803e3d6000fd5b610b5733848484610747565b60608151835114610e3a5760405162461bcd60e51b815260206004820152602960248201527f455243313135353a206163636f756e747320616e6420696473206c656e67746860448201527f206d69736d6174636800000000000000000000000000000000000000000000006064820152608401610665565b6000835167ffffffffffffffff811115610e5657610e56612f96565b604051908082528060200260200182016040528015610e7f578160200160208202803683370190505b50905060005b8451811015610ef757610eca858281518110610ea357610ea3613673565b6020026020010151858381518110610ebd57610ebd613673565b60200260200101516105eb565b828281518110610edc57610edc613673565b6020908102919091010152610ef08161369f565b9050610e85565b509392505050565b83610f09816111b8565b15610f695760405162461bcd60e51b815260206004820152602a60248201527f546f6b656e466f7267653131353576333a20746f6b656e20697320616c726561604482015269191e481919599a5b995960b21b6064820152608401610665565b610f768686868686610840565b506060610f8587878784611508565b835115610f9657610f9686856118f3565b50505050505050565b610faa6000336104b0565b61101c5760405162461bcd60e51b815260206004820152603e60248201527f546f6b656e466f7267653131353576335570677261646561626c653a2063616c60448201527f6c6572206973206e6f7420746865206f776e6572206e6f722061646d696e00006064820152608401610665565b61080182826118f3565b6001600160a01b03831633148061104257506110428333610584565b6110a55760405162461bcd60e51b815260206004820152602e60248201527f455243313135353a2063616c6c6572206973206e6f7420746f6b656e206f776e60448201526d195c881bdc88185c1c1c9bdd995960921b6064820152608401610665565b610b57838383611936565b6110bb6000336104b0565b61112d5760405162461bcd60e51b815260206004820152603e60248201527f546f6b656e466f7267653131353576335570677261646561626c653a2063616c60448201527f6c6572206973206e6f7420746865206f776e6572206e6f722061646d696e00006064820152608401610665565b61015f80546001600160a01b0383811673ffffffffffffffffffffffffffffffffffffffff19831681179093556040519116919082907feeb293e1f8f3a9db91ade748726387ed1352ca78f5430c5f06fe3d1e1ad5057990600090a35050565b600082815261012d602052604081206111a69083611b90565b9392505050565b610801338383611b9c565b60008181526101606020526040812080548291906111d5906135f4565b9050119050919050565b600081815261012d6020526040812061069390611c91565b600082815260fb6020526040902060010154611212816118c3565b610b578383611913565b6001600160a01b03851633148061123857506112388533610584565b61129b5760405162461bcd60e51b815260206004820152602e60248201527f455243313135353a2063616c6c6572206973206e6f7420746f6b656e206f776e60448201526d195c881bdc88185c1c1c9bdd995960921b6064820152608401610665565b610a9f8585858585611c9b565b600054610100900460ff16158080156112c85750600054600160ff909116105b806112e25750303b1580156112e2575060005460ff166001145b6113545760405162461bcd60e51b815260206004820152602e60248201527f496e697469616c697a61626c653a20636f6e747261637420697320616c72656160448201527f647920696e697469616c697a65640000000000000000000000000000000000006064820152608401610665565b6000805460ff191660011790558015611377576000805461ff0019166101001790555b61137f611e58565b611387611e58565b61138f611e58565b61139882611ec5565b61015f805473ffffffffffffffffffffffffffffffffffffffff19166001600160a01b0385161790556113cc600033611f39565b6113f67f9f2df0fed2c77648de5860a4cc508cd0818c85b8b8a1ab4ceeef8d981c8956a633611f39565b8015610b57576000805461ff0019169055604051600181527f7f26b83ff96e1f2b6a682f133852f6798a09c465da95921460cefb38474024989060200160405180910390a1505050565b6001600160a01b03831633148061145c575061145c8333610584565b6114bf5760405162461bcd60e51b815260206004820152602e60248201527f455243313135353a2063616c6c6572206973206e6f7420746f6b656e206f776e60448201526d195c881bdc88185c1c1c9bdd995960921b6064820152608401610665565b610b57838383611f43565b60006001600160e01b031982167f5a05180f0000000000000000000000000000000000000000000000000000000014806106935750610693826120d7565b6001600160a01b0384166115845760405162461bcd60e51b815260206004820152602160248201527f455243313135353a206d696e7420746f20746865207a65726f2061646472657360448201527f73000000000000000000000000000000000000000000000000000000000000006064820152608401610665565b33600061159085612115565b9050600061159d85612115565b90506115ae83600089858589612160565b60008681526065602090815260408083206001600160a01b038b168452909152812080548792906115e09084906136ba565b909155505060408051878152602081018790526001600160a01b03808a1692600092918716917fc3d58168c5ae7397731d063d5bbf3d657854427343f4c083240f7aacaa2d0f62910160405180910390a4610f968360008989898961216e565b600080600061164f8585612323565b91509150610ef781612369565b81518351146116be5760405162461bcd60e51b815260206004820152602860248201527f455243313135353a2069647320616e6420616d6f756e7473206c656e677468206044820152670dad2e6dac2e8c6d60c31b6064820152608401610665565b6001600160a01b0384166117225760405162461bcd60e51b815260206004820152602560248201527f455243313135353a207472616e7366657220746f20746865207a65726f206164604482015264647265737360d81b6064820152608401610665565b33611731818787878787612160565b60005b845181101561185d57600085828151811061175157611751613673565b60200260200101519050600085838151811061176f5761176f613673565b60209081029190910181015160008481526065835260408082206001600160a01b038e1683529093529190912054909150818110156118035760405162461bcd60e51b815260206004820152602a60248201527f455243313135353a20696e73756666696369656e742062616c616e636520666f60448201526939103a3930b739b332b960b11b6064820152608401610665565b60008381526065602090815260408083206001600160a01b038e8116855292528083208585039055908b168252812080548492906118429084906136ba565b92505081905550505050806118569061369f565b9050611734565b50846001600160a01b0316866001600160a01b0316826001600160a01b03167f4a39dc06d4c0dbc64b70af90fd698a233a518aa5d07e595d983b8c0526c8f7fb87876040516118ad9291906136d2565b60405180910390a46107ee8187878787876124d2565b6118cd81336125dd565b50565b6118da8282612652565b600082815261012d60205260409020610b5790826126f4565b6000828152610160602090815260409091208251610b5792840190612e00565b61191d8282612709565b600082815261012d60205260409020610b57908261278c565b6001600160a01b0383166119985760405162461bcd60e51b815260206004820152602360248201527f455243313135353a206275726e2066726f6d20746865207a65726f206164647260448201526265737360e81b6064820152608401610665565b80518251146119fa5760405162461bcd60e51b815260206004820152602860248201527f455243313135353a2069647320616e6420616d6f756e7473206c656e677468206044820152670dad2e6dac2e8c6d60c31b6064820152608401610665565b6000339050611a1d81856000868660405180602001604052806000815250612160565b60005b8351811015611b21576000848281518110611a3d57611a3d613673565b602002602001015190506000848381518110611a5b57611a5b613673565b60209081029190910181015160008481526065835260408082206001600160a01b038c168352909352919091205490915081811015611ae85760405162461bcd60e51b8152602060048201526024808201527f455243313135353a206275726e20616d6f756e7420657863656564732062616c604482015263616e636560e01b6064820152608401610665565b60009283526065602090815260408085206001600160a01b038b1686529091529092209103905580611b198161369f565b915050611a20565b5060006001600160a01b0316846001600160a01b0316826001600160a01b03167f4a39dc06d4c0dbc64b70af90fd698a233a518aa5d07e595d983b8c0526c8f7fb8686604051611b729291906136d2565b60405180910390a46040805160208101909152600090525b50505050565b60006111a683836127a1565b816001600160a01b0316836001600160a01b03161415611c245760405162461bcd60e51b815260206004820152602960248201527f455243313135353a2073657474696e6720617070726f76616c2073746174757360448201527f20666f722073656c6600000000000000000000000000000000000000000000006064820152608401610665565b6001600160a01b03838116600081815260666020908152604080832094871680845294825291829020805460ff191686151590811790915591519182527f17307eab39ab6107e8899845ad3d59bd9653f200f220920489ca2b5937696c31910160405180910390a3505050565b6000610693825490565b6001600160a01b038416611cff5760405162461bcd60e51b815260206004820152602560248201527f455243313135353a207472616e7366657220746f20746865207a65726f206164604482015264647265737360d81b6064820152608401610665565b336000611d0b85612115565b90506000611d1885612115565b9050611d28838989858589612160565b60008681526065602090815260408083206001600160a01b038c16845290915290205485811015611dae5760405162461bcd60e51b815260206004820152602a60248201527f455243313135353a20696e73756666696369656e742062616c616e636520666f60448201526939103a3930b739b332b960b11b6064820152608401610665565b60008781526065602090815260408083206001600160a01b038d8116855292528083208985039055908a16825281208054889290611ded9084906136ba565b909155505060408051888152602081018890526001600160a01b03808b16928c821692918816917fc3d58168c5ae7397731d063d5bbf3d657854427343f4c083240f7aacaa2d0f62910160405180910390a4611e4d848a8a8a8a8a61216e565b505050505050505050565b600054610100900460ff16611ec35760405162461bcd60e51b815260206004820152602b60248201527f496e697469616c697a61626c653a20636f6e7472616374206973206e6f74206960448201526a6e697469616c697a696e6760a81b6064820152608401610665565b565b600054610100900460ff16611f305760405162461bcd60e51b815260206004820152602b60248201527f496e697469616c697a61626c653a20636f6e7472616374206973206e6f74206960448201526a6e697469616c697a696e6760a81b6064820152608401610665565b6118cd816127cb565b61080182826118d0565b6001600160a01b038316611fa55760405162461bcd60e51b815260206004820152602360248201527f455243313135353a206275726e2066726f6d20746865207a65726f206164647260448201526265737360e81b6064820152608401610665565b336000611fb184612115565b90506000611fbe84612115565b9050611fde83876000858560405180602001604052806000815250612160565b60008581526065602090815260408083206001600160a01b038a1684529091529020548481101561205d5760405162461bcd60e51b8152602060048201526024808201527f455243313135353a206275726e20616d6f756e7420657863656564732062616c604482015263616e636560e01b6064820152608401610665565b60008681526065602090815260408083206001600160a01b038b81168086529184528285208a8703905582518b81529384018a90529092908816917fc3d58168c5ae7397731d063d5bbf3d657854427343f4c083240f7aacaa2d0f62910160405180910390a4604080516020810190915260009052610f96565b60006001600160e01b031982167f7965db0b0000000000000000000000000000000000000000000000000000000014806106935750610693826127de565b6040805160018082528183019092526060916000919060208083019080368337019050509050828160008151811061214f5761214f613673565b602090810291909101015292915050565b6107ee868686868686612879565b6001600160a01b0384163b156107ee5760405163f23a6e6160e01b81526001600160a01b0385169063f23a6e61906121b29089908990889088908890600401613700565b602060405180830381600087803b1580156121cc57600080fd5b505af19250505080156121fc575060408051601f3d908101601f191682019092526121f991810190613743565b60015b6122b257612208613760565b806308c379a01415612242575061221d61377c565b806122285750612244565b8060405162461bcd60e51b81526004016106659190612f83565b505b60405162461bcd60e51b815260206004820152603460248201527f455243313135353a207472616e7366657220746f206e6f6e2d4552433131353560448201527f526563656976657220696d706c656d656e7465720000000000000000000000006064820152608401610665565b6001600160e01b0319811663f23a6e6160e01b14610f965760405162461bcd60e51b815260206004820152602860248201527f455243313135353a204552433131353552656365697665722072656a656374656044820152676420746f6b656e7360c01b6064820152608401610665565b60008082516041141561235a5760208301516040840151606085015160001a61234e87828585612a07565b94509450505050612362565b506000905060025b9250929050565b600081600481111561237d5761237d613806565b14156123865750565b600181600481111561239a5761239a613806565b14156123e85760405162461bcd60e51b815260206004820152601860248201527f45434453413a20696e76616c6964207369676e617475726500000000000000006044820152606401610665565b60028160048111156123fc576123fc613806565b141561244a5760405162461bcd60e51b815260206004820152601f60248201527f45434453413a20696e76616c6964207369676e6174757265206c656e677468006044820152606401610665565b600381600481111561245e5761245e613806565b14156118cd5760405162461bcd60e51b815260206004820152602260248201527f45434453413a20696e76616c6964207369676e6174757265202773272076616c60448201527f75650000000000000000000000000000000000000000000000000000000000006064820152608401610665565b6001600160a01b0384163b156107ee5760405163bc197c8160e01b81526001600160a01b0385169063bc197c8190612516908990899088908890889060040161381c565b602060405180830381600087803b15801561253057600080fd5b505af1925050508015612560575060408051601f3d908101601f1916820190925261255d91810190613743565b60015b61256c57612208613760565b6001600160e01b0319811663bc197c8160e01b14610f965760405162461bcd60e51b815260206004820152602860248201527f455243313135353a204552433131353552656365697665722072656a656374656044820152676420746f6b656e7360c01b6064820152608401610665565b600082815260fb602090815260408083206001600160a01b038516845290915290205460ff166108015761261081612acb565b61261b836020612add565b60405160200161262c92919061387a565b60408051601f198184030181529082905262461bcd60e51b825261066591600401612f83565b600082815260fb602090815260408083206001600160a01b038516845290915290205460ff1661080157600082815260fb602090815260408083206001600160a01b03851684529091529020805460ff191660011790556126b03390565b6001600160a01b0316816001600160a01b0316837f2f8788117e7eff1d82e926ec794901d17c78024a50270940304540a733656f0d60405160405180910390a45050565b60006111a6836001600160a01b038416612cbe565b600082815260fb602090815260408083206001600160a01b038516845290915290205460ff161561080157600082815260fb602090815260408083206001600160a01b0385168085529252808320805460ff1916905551339285917ff6391f5c32d9c69d2a47ea670b442974b53935d1edc7fd64eb21e047a839171b9190a45050565b60006111a6836001600160a01b038416612d0d565b60008260000182815481106127b8576127b8613673565b9060005260206000200154905092915050565b8051610801906067906020840190612e00565b60006001600160e01b031982167fd9b67a2600000000000000000000000000000000000000000000000000000000148061284157506001600160e01b031982167f0e89341c00000000000000000000000000000000000000000000000000000000145b8061069357507f01ffc9a7000000000000000000000000000000000000000000000000000000006001600160e01b0319831614610693565b6001600160a01b0385166129005760005b83518110156128fe578281815181106128a5576128a5613673565b602002602001015160c960008684815181106128c3576128c3613673565b6020026020010151815260200190815260200160002060008282546128e891906136ba565b909155506128f790508161369f565b905061288a565b505b6001600160a01b0384166107ee5760005b8351811015610f9657600084828151811061292e5761292e613673565b60200260200101519050600084838151811061294c5761294c613673565b60200260200101519050600060c96000848152602001908152602001600020549050818110156129e45760405162461bcd60e51b815260206004820152602860248201527f455243313135353a206275726e20616d6f756e74206578636565647320746f7460448201527f616c537570706c790000000000000000000000000000000000000000000000006064820152608401610665565b600092835260c9602052604090922091039055612a008161369f565b9050612911565b6000807f7fffffffffffffffffffffffffffffff5d576e7357a4501ddfe92f46681b20a0831115612a3e5750600090506003612ac2565b6040805160008082526020820180845289905260ff881692820192909252606081018690526080810185905260019060a0016020604051602081039080840390855afa158015612a92573d6000803e3d6000fd5b5050604051601f1901519150506001600160a01b038116612abb57600060019250925050612ac2565b9150600090505b94509492505050565b60606106936001600160a01b03831660145b60606000612aec8360026138fb565b612af79060026136ba565b67ffffffffffffffff811115612b0f57612b0f612f96565b6040519080825280601f01601f191660200182016040528015612b39576020820181803683370190505b5090507f300000000000000000000000000000000000000000000000000000000000000081600081518110612b7057612b70613673565b60200101906001600160f81b031916908160001a9053507f780000000000000000000000000000000000000000000000000000000000000081600181518110612bbb57612bbb613673565b60200101906001600160f81b031916908160001a9053506000612bdf8460026138fb565b612bea9060016136ba565b90505b6001811115612c6f577f303132333435363738396162636465660000000000000000000000000000000085600f1660108110612c2b57612c2b613673565b1a60f81b828281518110612c4157612c41613673565b60200101906001600160f81b031916908160001a90535060049490941c93612c688161391a565b9050612bed565b5083156111a65760405162461bcd60e51b815260206004820181905260248201527f537472696e67733a20686578206c656e67746820696e73756666696369656e746044820152606401610665565b6000818152600183016020526040812054612d0557508154600181810184556000848152602080822090930184905584548482528286019093526040902091909155610693565b506000610693565b60008181526001830160205260408120548015612df6576000612d31600183613931565b8554909150600090612d4590600190613931565b9050818114612daa576000866000018281548110612d6557612d65613673565b9060005260206000200154905080876000018481548110612d8857612d88613673565b6000918252602080832090910192909255918252600188019052604090208390555b8554869080612dbb57612dbb613948565b600190038181906000526020600020016000905590558560010160008681526020019081526020016000206000905560019350505050610693565b6000915050610693565b828054612e0c906135f4565b90600052602060002090601f016020900481019282612e2e5760008555612e74565b82601f10612e4757805160ff1916838001178555612e74565b82800160010185558215612e74579182015b82811115612e74578251825591602001919060010190612e59565b50612e80929150612e84565b5090565b5b80821115612e805760008155600101612e85565b80356001600160a01b0381168114612eb057600080fd5b919050565b60008060408385031215612ec857600080fd5b612ed183612e99565b946020939093013593505050565b6001600160e01b0319811681146118cd57600080fd5b600060208284031215612f0757600080fd5b81356111a681612edf565b600060208284031215612f2457600080fd5b5035919050565b60005b83811015612f46578181015183820152602001612f2e565b83811115611b8a5750506000910152565b60008151808452612f6f816020860160208601612f2b565b601f01601f19169290920160200192915050565b6020815260006111a66020830184612f57565b634e487b7160e01b600052604160045260246000fd5b601f8201601f1916810167ffffffffffffffff81118282101715612fd257612fd2612f96565b6040525050565b600082601f830112612fea57600080fd5b813567ffffffffffffffff81111561300457613004612f96565b60405161301b601f8301601f191660200182612fac565b81815284602083860101111561303057600080fd5b816020850160208301376000918101602001919091529392505050565b6000806000806080858703121561306357600080fd5b61306c85612e99565b93506020850135925060408501359150606085013567ffffffffffffffff81111561309657600080fd5b6130a287828801612fd9565b91505092959194509250565b600080604083850312156130c157600080fd5b50508035926020909101359150565b600080600080600060a086880312156130e857600080fd5b6130f186612e99565b94506020860135935060408601359250606086013567ffffffffffffffff8082111561311c57600080fd5b61312889838a01612fd9565b9350608088013591508082111561313e57600080fd5b5061314b88828901612fd9565b9150509295509295909350565b60008060006060848603121561316d57600080fd5b61317684612e99565b95602085013595506040909401359392505050565b600067ffffffffffffffff8211156131a5576131a5612f96565b5060051b60200190565b600082601f8301126131c057600080fd5b813560206131cd8261318b565b6040516131da8282612fac565b83815260059390931b85018201928281019150868411156131fa57600080fd5b8286015b8481101561321557803583529183019183016131fe565b509695505050505050565b600080600080600060a0868803121561323857600080fd5b61324186612e99565b945061324f60208701612e99565b9350604086013567ffffffffffffffff8082111561326c57600080fd5b61327889838a016131af565b9450606088013591508082111561328e57600080fd5b61312889838a016131af565b600080604083850312156132ad57600080fd5b823591506132bd60208401612e99565b90509250929050565b6000806000606084860312156132db57600080fd5b8335925060208401359150604084013567ffffffffffffffff81111561330057600080fd5b61330c86828701612fd9565b9150509250925092565b6000806040838503121561332957600080fd5b823567ffffffffffffffff8082111561334157600080fd5b818501915085601f83011261335557600080fd5b813560206133628261318b565b60405161336f8282612fac565b83815260059390931b850182019282810191508984111561338f57600080fd5b948201945b838610156133b4576133a586612e99565b82529482019490820190613394565b965050860135925050808211156133ca57600080fd5b506133d7858286016131af565b9150509250929050565b600081518084526020808501945080840160005b83811015613411578151875295820195908201906001016133f5565b509495945050505050565b6020815260006111a660208301846133e1565b6000806040838503121561344257600080fd5b82359150602083013567ffffffffffffffff81111561346057600080fd5b6133d785828601612fd9565b60008060006060848603121561348157600080fd5b61348a84612e99565b9250602084013567ffffffffffffffff808211156134a757600080fd5b6134b3878388016131af565b935060408601359150808211156134c957600080fd5b5061330c868287016131af565b6000602082840312156134e857600080fd5b6111a682612e99565b6000806040838503121561350457600080fd5b61350d83612e99565b91506020830135801515811461352257600080fd5b809150509250929050565b6000806040838503121561354057600080fd5b61354983612e99565b91506132bd60208401612e99565b600080600080600060a0868803121561356f57600080fd5b61357886612e99565b945061358660208701612e99565b93506040860135925060608601359150608086013567ffffffffffffffff8111156135b057600080fd5b61314b88828901612fd9565b600080604083850312156135cf57600080fd5b6135d883612e99565b9150602083013567ffffffffffffffff81111561346057600080fd5b600181811c9082168061360857607f821691505b6020821081141561362957634e487b7160e01b600052602260045260246000fd5b50919050565b60006001600160a01b03808816835286602084015285604084015260a0606084015261365e60a0840186612f57565b91508084166080840152509695505050505050565b634e487b7160e01b600052603260045260246000fd5b634e487b7160e01b600052601160045260246000fd5b60006000198214156136b3576136b3613689565b5060010190565b600082198211156136cd576136cd613689565b500190565b6040815260006136e560408301856133e1565b82810360208401526136f781856133e1565b95945050505050565b60006001600160a01b03808816835280871660208401525084604083015283606083015260a0608083015261373860a0830184612f57565b979650505050505050565b60006020828403121561375557600080fd5b81516111a681612edf565b600060033d11156137795760046000803e5060005160e01c5b90565b600060443d101561378a5790565b6040516003193d81016004833e81513d67ffffffffffffffff81602484011181841117156137ba57505050505090565b82850191508151818111156137d25750505050505090565b843d87010160208285010111156137ec5750505050505090565b6137fb60208286010187612fac565b509095945050505050565b634e487b7160e01b600052602160045260246000fd5b60006001600160a01b03808816835280871660208401525060a0604083015261384860a08301866133e1565b828103606084015261385a81866133e1565b9050828103608084015261386e8185612f57565b98975050505050505050565b7f416363657373436f6e74726f6c3a206163636f756e74200000000000000000008152600083516138b2816017850160208801612f2b565b7f206973206d697373696e6720726f6c652000000000000000000000000000000060179184019182015283516138ef816028840160208801612f2b565b01602801949350505050565b600081600019048311821515161561391557613915613689565b500290565b60008161392957613929613689565b506000190190565b60008282101561394357613943613689565b500390565b634e487b7160e01b600052603160045260246000fdfea264697066735822122092c3d2f23484b8c93885d08d0913a27209447cf9f7245c29c255d3b75667855a64736f6c63430008090033",
  "devdoc": {
    "kind": "dev",
    "methods": {
      "balanceOf(address,uint256)": {
        "details": "See {IERC1155-balanceOf}. Requirements: - `account` cannot be the zero address."
      },
      "balanceOfBatch(address[],uint256[])": {
        "details": "See {IERC1155-balanceOfBatch}. Requirements: - `accounts` and `ids` must have the same length."
      },
      "createMessage(address,uint256,uint256,string)": {
        "params": {
          "to": "the beneficiary",
          "tokenUri": "The tokenUri"
        },
        "returns": {
          "_0": "the message to sign"
        }
      },
      "exists(uint256)": {
        "details": "Indicates whether any token exist with a given id, or not."
      },
      "getRoleAdmin(bytes32)": {
        "details": "Returns the admin role that controls `role`. See {grantRole} and {revokeRole}. To change a role's admin, use {_setRoleAdmin}."
      },
      "getRoleMember(bytes32,uint256)": {
        "details": "Returns one of the accounts that have `role`. `index` must be a value between 0 and {getRoleMemberCount}, non-inclusive. Role bearers are not sorted in any particular way, and their ordering may change at any point. WARNING: When using {getRoleMember} and {getRoleMemberCount}, make sure you perform all queries on the same block. See the following https://forum.openzeppelin.com/t/iterating-over-elements-on-enumerableset-in-openzeppelin-contracts/2296[forum post] for more information."
      },
      "getRoleMemberCount(bytes32)": {
        "details": "Returns the number of accounts that have `role`. Can be used together with {getRoleMember} to enumerate all bearers of a role."
      },
      "grantRole(bytes32,address)": {
        "details": "Grants `role` to `account`. If `account` had not been already granted `role`, emits a {RoleGranted} event. Requirements: - the caller must have ``role``'s admin role. May emit a {RoleGranted} event."
      },
      "hasRole(bytes32,address)": {
        "details": "Returns `true` if `account` has been granted `role`."
      },
      "isApprovedForAll(address,address)": {
        "details": "See {IERC1155-isApprovedForAll}."
      },
      "renounceRole(bytes32,address)": {
        "details": "Revokes `role` from the calling account. Roles are often managed via {grantRole} and {revokeRole}: this function's purpose is to provide a mechanism for accounts to lose their privileges if they are compromised (such as when a trusted device is misplaced). If the calling account had been revoked `role`, emits a {RoleRevoked} event. Requirements: - the caller must be `account`. May emit a {RoleRevoked} event."
      },
      "revokeRole(bytes32,address)": {
        "details": "Revokes `role` from `account`. If `account` had been granted `role`, emits a {RoleRevoked} event. Requirements: - the caller must have ``role``'s admin role. May emit a {RoleRevoked} event."
      },
      "safeBatchTransferFrom(address,address,uint256[],uint256[],bytes)": {
        "details": "See {IERC1155-safeBatchTransferFrom}."
      },
      "safeTransferFrom(address,address,uint256,uint256,bytes)": {
        "details": "See {IERC1155-safeTransferFrom}."
      },
      "setApprovalForAll(address,bool)": {
        "details": "See {IERC1155-setApprovalForAll}."
      },
      "signer()": {
        "returns": {
          "_0": "the signer address"
        }
      },
      "totalSupply(uint256)": {
        "details": "Total amount of tokens in with a given id."
      },
      "validateSignature(address,uint256,uint256,string,bytes)": {
        "details": "it verifies that parameters coming from the UI were not corrupted by a middlemen",
        "params": {
          "hash": "The IPFS hash",
          "signature": "the signature by the allowance signer wallet",
          "tokenId": "the tokenID in question"
        },
        "returns": {
          "_0": "the message to mark as used"
        }
      }
    },
    "version": 1
  },
  "userdoc": {
    "kind": "user",
    "methods": {
      "createMessage(address,uint256,uint256,string)": {
        "notice": "Helper that creates the message that signer needs to sign to allow a mint         this is usually also used when creating the allowances, to ensure \"message\"         is the same"
      },
      "signer()": {
        "notice": "Helper to know signers address"
      },
      "validateSignature(address,uint256,uint256,string,bytes)": {
        "notice": "This function verifies that the current request is valid"
      }
    },
    "version": 1
  },
  "storageLayout": {
    "storage": [
      {
        "astId": 717,
        "contract": "contracts/nft/upgradable/TokenForge1155v3Upgradeable.sol:TokenForge1155v3Upgradeable",
        "label": "_initialized",
        "offset": 0,
        "slot": "0",
        "type": "t_uint8"
      },
      {
        "astId": 720,
        "contract": "contracts/nft/upgradable/TokenForge1155v3Upgradeable.sol:TokenForge1155v3Upgradeable",
        "label": "_initializing",
        "offset": 1,
        "slot": "0",
        "type": "t_bool"
      },
      {
        "astId": 4858,
        "contract": "contracts/nft/upgradable/TokenForge1155v3Upgradeable.sol:TokenForge1155v3Upgradeable",
        "label": "__gap",
        "offset": 0,
        "slot": "1",
        "type": "t_array(t_uint256)50_storage"
      },
      {
        "astId": 5438,
        "contract": "contracts/nft/upgradable/TokenForge1155v3Upgradeable.sol:TokenForge1155v3Upgradeable",
        "label": "__gap",
        "offset": 0,
        "slot": "51",
        "type": "t_array(t_uint256)50_storage"
      },
      {
        "astId": 1035,
        "contract": "contracts/nft/upgradable/TokenForge1155v3Upgradeable.sol:TokenForge1155v3Upgradeable",
        "label": "_balances",
        "offset": 0,
        "slot": "101",
        "type": "t_mapping(t_uint256,t_mapping(t_address,t_uint256))"
      },
      {
        "astId": 1041,
        "contract": "contracts/nft/upgradable/TokenForge1155v3Upgradeable.sol:TokenForge1155v3Upgradeable",
        "label": "_operatorApprovals",
        "offset": 0,
        "slot": "102",
        "type": "t_mapping(t_address,t_mapping(t_address,t_bool))"
      },
      {
        "astId": 1043,
        "contract": "contracts/nft/upgradable/TokenForge1155v3Upgradeable.sol:TokenForge1155v3Upgradeable",
        "label": "_uri",
        "offset": 0,
        "slot": "103",
        "type": "t_string_storage"
      },
      {
        "astId": 2250,
        "contract": "contracts/nft/upgradable/TokenForge1155v3Upgradeable.sol:TokenForge1155v3Upgradeable",
        "label": "__gap",
        "offset": 0,
        "slot": "104",
        "type": "t_array(t_uint256)47_storage"
      },
      {
        "astId": 2502,
        "contract": "contracts/nft/upgradable/TokenForge1155v3Upgradeable.sol:TokenForge1155v3Upgradeable",
        "label": "__gap",
        "offset": 0,
        "slot": "151",
        "type": "t_array(t_uint256)50_storage"
      },
      {
        "astId": 2528,
        "contract": "contracts/nft/upgradable/TokenForge1155v3Upgradeable.sol:TokenForge1155v3Upgradeable",
        "label": "_totalSupply",
        "offset": 0,
        "slot": "201",
        "type": "t_mapping(t_uint256,t_uint256)"
      },
      {
        "astId": 2679,
        "contract": "contracts/nft/upgradable/TokenForge1155v3Upgradeable.sol:TokenForge1155v3Upgradeable",
        "label": "__gap",
        "offset": 0,
        "slot": "202",
        "type": "t_array(t_uint256)49_storage"
      },
      {
        "astId": 184,
        "contract": "contracts/nft/upgradable/TokenForge1155v3Upgradeable.sol:TokenForge1155v3Upgradeable",
        "label": "_roles",
        "offset": 0,
        "slot": "251",
        "type": "t_mapping(t_bytes32,t_struct(RoleData)179_storage)"
      },
      {
        "astId": 479,
        "contract": "contracts/nft/upgradable/TokenForge1155v3Upgradeable.sol:TokenForge1155v3Upgradeable",
        "label": "__gap",
        "offset": 0,
        "slot": "252",
        "type": "t_array(t_uint256)49_storage"
      },
      {
        "astId": 33,
        "contract": "contracts/nft/upgradable/TokenForge1155v3Upgradeable.sol:TokenForge1155v3Upgradeable",
        "label": "_roleMembers",
        "offset": 0,
        "slot": "301",
        "type": "t_mapping(t_bytes32,t_struct(AddressSet)6642_storage)"
      },
      {
        "astId": 143,
        "contract": "contracts/nft/upgradable/TokenForge1155v3Upgradeable.sol:TokenForge1155v3Upgradeable",
        "label": "__gap",
        "offset": 0,
        "slot": "302",
        "type": "t_array(t_uint256)49_storage"
      },
      {
        "astId": 15420,
        "contract": "contracts/nft/upgradable/TokenForge1155v3Upgradeable.sol:TokenForge1155v3Upgradeable",
        "label": "_signer",
        "offset": 0,
        "slot": "351",
        "type": "t_address"
      },
      {
        "astId": 15484,
        "contract": "contracts/nft/upgradable/TokenForge1155v3Upgradeable.sol:TokenForge1155v3Upgradeable",
        "label": "_tokenUris",
        "offset": 0,
        "slot": "352",
        "type": "t_mapping(t_uint256,t_string_storage)"
      }
    ],
    "types": {
      "t_address": {
        "encoding": "inplace",
        "label": "address",
        "numberOfBytes": "20"
      },
      "t_array(t_bytes32)dyn_storage": {
        "base": "t_bytes32",
        "encoding": "dynamic_array",
        "label": "bytes32[]",
        "numberOfBytes": "32"
      },
      "t_array(t_uint256)47_storage": {
        "base": "t_uint256",
        "encoding": "inplace",
        "label": "uint256[47]",
        "numberOfBytes": "1504"
      },
      "t_array(t_uint256)49_storage": {
        "base": "t_uint256",
        "encoding": "inplace",
        "label": "uint256[49]",
        "numberOfBytes": "1568"
      },
      "t_array(t_uint256)50_storage": {
        "base": "t_uint256",
        "encoding": "inplace",
        "label": "uint256[50]",
        "numberOfBytes": "1600"
      },
      "t_bool": {
        "encoding": "inplace",
        "label": "bool",
        "numberOfBytes": "1"
      },
      "t_bytes32": {
        "encoding": "inplace",
        "label": "bytes32",
        "numberOfBytes": "32"
      },
      "t_mapping(t_address,t_bool)": {
        "encoding": "mapping",
        "key": "t_address",
        "label": "mapping(address => bool)",
        "numberOfBytes": "32",
        "value": "t_bool"
      },
      "t_mapping(t_address,t_mapping(t_address,t_bool))": {
        "encoding": "mapping",
        "key": "t_address",
        "label": "mapping(address => mapping(address => bool))",
        "numberOfBytes": "32",
        "value": "t_mapping(t_address,t_bool)"
      },
      "t_mapping(t_address,t_uint256)": {
        "encoding": "mapping",
        "key": "t_address",
        "label": "mapping(address => uint256)",
        "numberOfBytes": "32",
        "value": "t_uint256"
      },
      "t_mapping(t_bytes32,t_struct(AddressSet)6642_storage)": {
        "encoding": "mapping",
        "key": "t_bytes32",
        "label": "mapping(bytes32 => struct EnumerableSetUpgradeable.AddressSet)",
        "numberOfBytes": "32",
        "value": "t_struct(AddressSet)6642_storage"
      },
      "t_mapping(t_bytes32,t_struct(RoleData)179_storage)": {
        "encoding": "mapping",
        "key": "t_bytes32",
        "label": "mapping(bytes32 => struct AccessControlUpgradeable.RoleData)",
        "numberOfBytes": "32",
        "value": "t_struct(RoleData)179_storage"
      },
      "t_mapping(t_bytes32,t_uint256)": {
        "encoding": "mapping",
        "key": "t_bytes32",
        "label": "mapping(bytes32 => uint256)",
        "numberOfBytes": "32",
        "value": "t_uint256"
      },
      "t_mapping(t_uint256,t_mapping(t_address,t_uint256))": {
        "encoding": "mapping",
        "key": "t_uint256",
        "label": "mapping(uint256 => mapping(address => uint256))",
        "numberOfBytes": "32",
        "value": "t_mapping(t_address,t_uint256)"
      },
      "t_mapping(t_uint256,t_string_storage)": {
        "encoding": "mapping",
        "key": "t_uint256",
        "label": "mapping(uint256 => string)",
        "numberOfBytes": "32",
        "value": "t_string_storage"
      },
      "t_mapping(t_uint256,t_uint256)": {
        "encoding": "mapping",
        "key": "t_uint256",
        "label": "mapping(uint256 => uint256)",
        "numberOfBytes": "32",
        "value": "t_uint256"
      },
      "t_string_storage": {
        "encoding": "bytes",
        "label": "string",
        "numberOfBytes": "32"
      },
      "t_struct(AddressSet)6642_storage": {
        "encoding": "inplace",
        "label": "struct EnumerableSetUpgradeable.AddressSet",
        "members": [
          {
            "astId": 6641,
            "contract": "contracts/nft/upgradable/TokenForge1155v3Upgradeable.sol:TokenForge1155v3Upgradeable",
            "label": "_inner",
            "offset": 0,
            "slot": "0",
            "type": "t_struct(Set)6327_storage"
          }
        ],
        "numberOfBytes": "64"
      },
      "t_struct(RoleData)179_storage": {
        "encoding": "inplace",
        "label": "struct AccessControlUpgradeable.RoleData",
        "members": [
          {
            "astId": 176,
            "contract": "contracts/nft/upgradable/TokenForge1155v3Upgradeable.sol:TokenForge1155v3Upgradeable",
            "label": "members",
            "offset": 0,
            "slot": "0",
            "type": "t_mapping(t_address,t_bool)"
          },
          {
            "astId": 178,
            "contract": "contracts/nft/upgradable/TokenForge1155v3Upgradeable.sol:TokenForge1155v3Upgradeable",
            "label": "adminRole",
            "offset": 0,
            "slot": "1",
            "type": "t_bytes32"
          }
        ],
        "numberOfBytes": "64"
      },
      "t_struct(Set)6327_storage": {
        "encoding": "inplace",
        "label": "struct EnumerableSetUpgradeable.Set",
        "members": [
          {
            "astId": 6322,
            "contract": "contracts/nft/upgradable/TokenForge1155v3Upgradeable.sol:TokenForge1155v3Upgradeable",
            "label": "_values",
            "offset": 0,
            "slot": "0",
            "type": "t_array(t_bytes32)dyn_storage"
          },
          {
            "astId": 6326,
            "contract": "contracts/nft/upgradable/TokenForge1155v3Upgradeable.sol:TokenForge1155v3Upgradeable",
            "label": "_indexes",
            "offset": 0,
            "slot": "1",
            "type": "t_mapping(t_bytes32,t_uint256)"
          }
        ],
        "numberOfBytes": "64"
      },
      "t_uint256": {
        "encoding": "inplace",
        "label": "uint256",
        "numberOfBytes": "32"
      },
      "t_uint8": {
        "encoding": "inplace",
        "label": "uint8",
        "numberOfBytes": "1"
      }
    }
  }
}