{
  "address": "0x8438847A75369BE3e930D423d84162512c8FA505",
  "abi": [
    {
      "inputs": [
        {
          "internalType": "address",
          "name": "signer_",
          "type": "address"
        },
        {
          "internalType": "string",
          "name": "baseUri_",
          "type": "string"
        }
      ],
      "stateMutability": "nonpayable",
      "type": "constructor"
    },
    {
      "anonymous": false,
      "inputs": [
        {
          "indexed": true,
          "internalType": "address",
          "name": "account",
          "type": "address"
        },
        {
          "indexed": true,
          "internalType": "address",
          "name": "operator",
          "type": "address"
        },
        {
          "indexed": false,
          "internalType": "bool",
          "name": "approved",
          "type": "bool"
        }
      ],
      "name": "ApprovalForAll",
      "type": "event"
    },
    {
      "anonymous": false,
      "inputs": [
        {
          "indexed": true,
          "internalType": "address",
          "name": "previousOwner",
          "type": "address"
        },
        {
          "indexed": true,
          "internalType": "address",
          "name": "newOwner",
          "type": "address"
        }
      ],
      "name": "OwnershipTransferred",
      "type": "event"
    },
    {
      "anonymous": false,
      "inputs": [
        {
          "indexed": true,
          "internalType": "bytes32",
          "name": "role",
          "type": "bytes32"
        },
        {
          "indexed": true,
          "internalType": "bytes32",
          "name": "previousAdminRole",
          "type": "bytes32"
        },
        {
          "indexed": true,
          "internalType": "bytes32",
          "name": "newAdminRole",
          "type": "bytes32"
        }
      ],
      "name": "RoleAdminChanged",
      "type": "event"
    },
    {
      "anonymous": false,
      "inputs": [
        {
          "indexed": true,
          "internalType": "bytes32",
          "name": "role",
          "type": "bytes32"
        },
        {
          "indexed": true,
          "internalType": "address",
          "name": "account",
          "type": "address"
        },
        {
          "indexed": true,
          "internalType": "address",
          "name": "sender",
          "type": "address"
        }
      ],
      "name": "RoleGranted",
      "type": "event"
    },
    {
      "anonymous": false,
      "inputs": [
        {
          "indexed": true,
          "internalType": "bytes32",
          "name": "role",
          "type": "bytes32"
        },
        {
          "indexed": true,
          "internalType": "address",
          "name": "account",
          "type": "address"
        },
        {
          "indexed": true,
          "internalType": "address",
          "name": "sender",
          "type": "address"
        }
      ],
      "name": "RoleRevoked",
      "type": "event"
    },
    {
      "anonymous": false,
      "inputs": [
        {
          "indexed": true,
          "internalType": "address",
          "name": "oldSigner",
          "type": "address"
        },
        {
          "indexed": true,
          "internalType": "address",
          "name": "_signer",
          "type": "address"
        }
      ],
      "name": "SignerChanged",
      "type": "event"
    },
    {
      "anonymous": false,
      "inputs": [
        {
          "indexed": true,
          "internalType": "address",
          "name": "operator",
          "type": "address"
        },
        {
          "indexed": true,
          "internalType": "address",
          "name": "from",
          "type": "address"
        },
        {
          "indexed": true,
          "internalType": "address",
          "name": "to",
          "type": "address"
        },
        {
          "indexed": false,
          "internalType": "uint256[]",
          "name": "ids",
          "type": "uint256[]"
        },
        {
          "indexed": false,
          "internalType": "uint256[]",
          "name": "values",
          "type": "uint256[]"
        }
      ],
      "name": "TransferBatch",
      "type": "event"
    },
    {
      "anonymous": false,
      "inputs": [
        {
          "indexed": true,
          "internalType": "address",
          "name": "operator",
          "type": "address"
        },
        {
          "indexed": true,
          "internalType": "address",
          "name": "from",
          "type": "address"
        },
        {
          "indexed": true,
          "internalType": "address",
          "name": "to",
          "type": "address"
        },
        {
          "indexed": false,
          "internalType": "uint256",
          "name": "id",
          "type": "uint256"
        },
        {
          "indexed": false,
          "internalType": "uint256",
          "name": "value",
          "type": "uint256"
        }
      ],
      "name": "TransferSingle",
      "type": "event"
    },
    {
      "anonymous": false,
      "inputs": [
        {
          "indexed": false,
          "internalType": "string",
          "name": "value",
          "type": "string"
        },
        {
          "indexed": true,
          "internalType": "uint256",
          "name": "id",
          "type": "uint256"
        }
      ],
      "name": "URI",
      "type": "event"
    },
    {
      "inputs": [],
      "name": "ADMIN_ROLE",
      "outputs": [
        {
          "internalType": "bytes32",
          "name": "",
          "type": "bytes32"
        }
      ],
      "stateMutability": "view",
      "type": "function"
    },
    {
      "inputs": [],
      "name": "DEFAULT_ADMIN_ROLE",
      "outputs": [
        {
          "internalType": "bytes32",
          "name": "",
          "type": "bytes32"
        }
      ],
      "stateMutability": "view",
      "type": "function"
    },
    {
      "inputs": [],
      "name": "MINTER_ROLE",
      "outputs": [
        {
          "internalType": "bytes32",
          "name": "",
          "type": "bytes32"
        }
      ],
      "stateMutability": "view",
      "type": "function"
    },
    {
      "inputs": [
        {
          "internalType": "address",
          "name": "account",
          "type": "address"
        },
        {
          "internalType": "uint256",
          "name": "id",
          "type": "uint256"
        }
      ],
      "name": "balanceOf",
      "outputs": [
        {
          "internalType": "uint256",
          "name": "",
          "type": "uint256"
        }
      ],
      "stateMutability": "view",
      "type": "function"
    },
    {
      "inputs": [
        {
          "internalType": "address[]",
          "name": "accounts",
          "type": "address[]"
        },
        {
          "internalType": "uint256[]",
          "name": "ids",
          "type": "uint256[]"
        }
      ],
      "name": "balanceOfBatch",
      "outputs": [
        {
          "internalType": "uint256[]",
          "name": "",
          "type": "uint256[]"
        }
      ],
      "stateMutability": "view",
      "type": "function"
    },
    {
      "inputs": [
        {
          "internalType": "address",
          "name": "account",
          "type": "address"
        },
        {
          "internalType": "uint256",
          "name": "id",
          "type": "uint256"
        },
        {
          "internalType": "uint256",
          "name": "value",
          "type": "uint256"
        }
      ],
      "name": "burn",
      "outputs": [],
      "stateMutability": "nonpayable",
      "type": "function"
    },
    {
      "inputs": [
        {
          "internalType": "address",
          "name": "account",
          "type": "address"
        },
        {
          "internalType": "uint256[]",
          "name": "ids",
          "type": "uint256[]"
        },
        {
          "internalType": "uint256[]",
          "name": "values",
          "type": "uint256[]"
        }
      ],
      "name": "burnBatch",
      "outputs": [],
      "stateMutability": "nonpayable",
      "type": "function"
    },
    {
      "inputs": [
        {
          "internalType": "address",
          "name": "to",
          "type": "address"
        },
        {
          "internalType": "uint256",
          "name": "tokenId",
          "type": "uint256"
        },
        {
          "internalType": "uint256",
          "name": "amount",
          "type": "uint256"
        },
        {
          "internalType": "string",
          "name": "tokenUri",
          "type": "string"
        }
      ],
      "name": "create",
      "outputs": [],
      "stateMutability": "nonpayable",
      "type": "function"
    },
    {
      "inputs": [
        {
          "internalType": "address",
          "name": "to",
          "type": "address"
        },
        {
          "internalType": "uint256",
          "name": "tokenId",
          "type": "uint256"
        },
        {
          "internalType": "uint256",
          "name": "amount",
          "type": "uint256"
        },
        {
          "internalType": "string",
          "name": "tokenUri",
          "type": "string"
        }
      ],
      "name": "createMessage",
      "outputs": [
        {
          "internalType": "bytes32",
          "name": "",
          "type": "bytes32"
        }
      ],
      "stateMutability": "view",
      "type": "function"
    },
    {
      "inputs": [
        {
          "internalType": "address",
          "name": "to",
          "type": "address"
        },
        {
          "internalType": "uint256",
          "name": "tokenId",
          "type": "uint256"
        },
        {
          "internalType": "uint256",
          "name": "amount",
          "type": "uint256"
        },
        {
          "internalType": "string",
          "name": "tokenUri",
          "type": "string"
        },
        {
          "internalType": "bytes",
          "name": "signature",
          "type": "bytes"
        }
      ],
      "name": "createWithSignature",
      "outputs": [],
      "stateMutability": "nonpayable",
      "type": "function"
    },
    {
      "inputs": [
        {
          "internalType": "uint256",
          "name": "id",
          "type": "uint256"
        }
      ],
      "name": "exists",
      "outputs": [
        {
          "internalType": "bool",
          "name": "",
          "type": "bool"
        }
      ],
      "stateMutability": "view",
      "type": "function"
    },
    {
      "inputs": [
        {
          "internalType": "bytes32",
          "name": "role",
          "type": "bytes32"
        }
      ],
      "name": "getRoleAdmin",
      "outputs": [
        {
          "internalType": "bytes32",
          "name": "",
          "type": "bytes32"
        }
      ],
      "stateMutability": "view",
      "type": "function"
    },
    {
      "inputs": [
        {
          "internalType": "bytes32",
          "name": "role",
          "type": "bytes32"
        },
        {
          "internalType": "uint256",
          "name": "index",
          "type": "uint256"
        }
      ],
      "name": "getRoleMember",
      "outputs": [
        {
          "internalType": "address",
          "name": "",
          "type": "address"
        }
      ],
      "stateMutability": "view",
      "type": "function"
    },
    {
      "inputs": [
        {
          "internalType": "bytes32",
          "name": "role",
          "type": "bytes32"
        }
      ],
      "name": "getRoleMemberCount",
      "outputs": [
        {
          "internalType": "uint256",
          "name": "",
          "type": "uint256"
        }
      ],
      "stateMutability": "view",
      "type": "function"
    },
    {
      "inputs": [
        {
          "internalType": "bytes32",
          "name": "role",
          "type": "bytes32"
        },
        {
          "internalType": "address",
          "name": "account",
          "type": "address"
        }
      ],
      "name": "grantRole",
      "outputs": [],
      "stateMutability": "nonpayable",
      "type": "function"
    },
    {
      "inputs": [
        {
          "internalType": "bytes32",
          "name": "role",
          "type": "bytes32"
        },
        {
          "internalType": "address",
          "name": "account",
          "type": "address"
        }
      ],
      "name": "hasRole",
      "outputs": [
        {
          "internalType": "bool",
          "name": "",
          "type": "bool"
        }
      ],
      "stateMutability": "view",
      "type": "function"
    },
    {
      "inputs": [
        {
          "internalType": "address",
          "name": "account",
          "type": "address"
        },
        {
          "internalType": "address",
          "name": "operator",
          "type": "address"
        }
      ],
      "name": "isApprovedForAll",
      "outputs": [
        {
          "internalType": "bool",
          "name": "",
          "type": "bool"
        }
      ],
      "stateMutability": "view",
      "type": "function"
    },
    {
      "inputs": [
        {
          "internalType": "uint256",
          "name": "tokenId",
          "type": "uint256"
        }
      ],
      "name": "isTokenDefined",
      "outputs": [
        {
          "internalType": "bool",
          "name": "",
          "type": "bool"
        }
      ],
      "stateMutability": "view",
      "type": "function"
    },
    {
      "inputs": [
        {
          "internalType": "uint256",
          "name": "tokenId",
          "type": "uint256"
        },
        {
          "internalType": "uint256",
          "name": "amount",
          "type": "uint256"
        }
      ],
      "name": "mint",
      "outputs": [],
      "stateMutability": "nonpayable",
      "type": "function"
    },
    {
      "inputs": [
        {
          "internalType": "address",
          "name": "to",
          "type": "address"
        },
        {
          "internalType": "uint256",
          "name": "tokenId",
          "type": "uint256"
        },
        {
          "internalType": "uint256",
          "name": "amount",
          "type": "uint256"
        }
      ],
      "name": "mintTo",
      "outputs": [],
      "stateMutability": "nonpayable",
      "type": "function"
    },
    {
      "inputs": [
        {
          "internalType": "address",
          "name": "to",
          "type": "address"
        },
        {
          "internalType": "uint256",
          "name": "tokenId",
          "type": "uint256"
        },
        {
          "internalType": "uint256",
          "name": "amount",
          "type": "uint256"
        },
        {
          "internalType": "bytes",
          "name": "signature",
          "type": "bytes"
        }
      ],
      "name": "mintToWithSignature",
      "outputs": [],
      "stateMutability": "nonpayable",
      "type": "function"
    },
    {
      "inputs": [
        {
          "internalType": "uint256",
          "name": "tokenId",
          "type": "uint256"
        },
        {
          "internalType": "uint256",
          "name": "amount",
          "type": "uint256"
        },
        {
          "internalType": "bytes",
          "name": "signature",
          "type": "bytes"
        }
      ],
      "name": "mintWithSignature",
      "outputs": [],
      "stateMutability": "nonpayable",
      "type": "function"
    },
    {
      "inputs": [],
      "name": "owner",
      "outputs": [
        {
          "internalType": "address",
          "name": "",
          "type": "address"
        }
      ],
      "stateMutability": "view",
      "type": "function"
    },
    {
      "inputs": [],
      "name": "renounceOwnership",
      "outputs": [],
      "stateMutability": "nonpayable",
      "type": "function"
    },
    {
      "inputs": [
        {
          "internalType": "bytes32",
          "name": "role",
          "type": "bytes32"
        },
        {
          "internalType": "address",
          "name": "account",
          "type": "address"
        }
      ],
      "name": "renounceRole",
      "outputs": [],
      "stateMutability": "nonpayable",
      "type": "function"
    },
    {
      "inputs": [
        {
          "internalType": "bytes32",
          "name": "role",
          "type": "bytes32"
        },
        {
          "internalType": "address",
          "name": "account",
          "type": "address"
        }
      ],
      "name": "revokeRole",
      "outputs": [],
      "stateMutability": "nonpayable",
      "type": "function"
    },
    {
      "inputs": [
        {
          "internalType": "address",
          "name": "from",
          "type": "address"
        },
        {
          "internalType": "address",
          "name": "to",
          "type": "address"
        },
        {
          "internalType": "uint256[]",
          "name": "ids",
          "type": "uint256[]"
        },
        {
          "internalType": "uint256[]",
          "name": "amounts",
          "type": "uint256[]"
        },
        {
          "internalType": "bytes",
          "name": "data",
          "type": "bytes"
        }
      ],
      "name": "safeBatchTransferFrom",
      "outputs": [],
      "stateMutability": "nonpayable",
      "type": "function"
    },
    {
      "inputs": [
        {
          "internalType": "address",
          "name": "from",
          "type": "address"
        },
        {
          "internalType": "address",
          "name": "to",
          "type": "address"
        },
        {
          "internalType": "uint256",
          "name": "id",
          "type": "uint256"
        },
        {
          "internalType": "uint256",
          "name": "amount",
          "type": "uint256"
        },
        {
          "internalType": "bytes",
          "name": "data",
          "type": "bytes"
        }
      ],
      "name": "safeTransferFrom",
      "outputs": [],
      "stateMutability": "nonpayable",
      "type": "function"
    },
    {
      "inputs": [
        {
          "internalType": "address",
          "name": "operator",
          "type": "address"
        },
        {
          "internalType": "bool",
          "name": "approved",
          "type": "bool"
        }
      ],
      "name": "setApprovalForAll",
      "outputs": [],
      "stateMutability": "nonpayable",
      "type": "function"
    },
    {
      "inputs": [
        {
          "internalType": "address",
          "name": "signer_",
          "type": "address"
        }
      ],
      "name": "setSigner",
      "outputs": [],
      "stateMutability": "nonpayable",
      "type": "function"
    },
    {
      "inputs": [
        {
          "internalType": "uint256",
          "name": "id",
          "type": "uint256"
        },
        {
          "internalType": "string",
          "name": "tokenUri",
          "type": "string"
        }
      ],
      "name": "setTokenUri",
      "outputs": [],
      "stateMutability": "nonpayable",
      "type": "function"
    },
    {
      "inputs": [],
      "name": "signer",
      "outputs": [
        {
          "internalType": "address",
          "name": "",
          "type": "address"
        }
      ],
      "stateMutability": "view",
      "type": "function"
    },
    {
      "inputs": [
        {
          "internalType": "bytes4",
          "name": "interfaceId",
          "type": "bytes4"
        }
      ],
      "name": "supportsInterface",
      "outputs": [
        {
          "internalType": "bool",
          "name": "",
          "type": "bool"
        }
      ],
      "stateMutability": "view",
      "type": "function"
    },
    {
      "inputs": [
        {
          "internalType": "uint256",
          "name": "id",
          "type": "uint256"
        }
      ],
      "name": "totalSupply",
      "outputs": [
        {
          "internalType": "uint256",
          "name": "",
          "type": "uint256"
        }
      ],
      "stateMutability": "view",
      "type": "function"
    },
    {
      "inputs": [
        {
          "internalType": "address",
          "name": "newOwner",
          "type": "address"
        }
      ],
      "name": "transferOwnership",
      "outputs": [],
      "stateMutability": "nonpayable",
      "type": "function"
    },
    {
      "inputs": [
        {
          "internalType": "uint256",
          "name": "id",
          "type": "uint256"
        }
      ],
      "name": "uri",
      "outputs": [
        {
          "internalType": "string",
          "name": "",
          "type": "string"
        }
      ],
      "stateMutability": "view",
      "type": "function"
    },
    {
      "inputs": [
        {
          "internalType": "address",
          "name": "to",
          "type": "address"
        },
        {
          "internalType": "uint256",
          "name": "tokenId",
          "type": "uint256"
        },
        {
          "internalType": "uint256",
          "name": "amount",
          "type": "uint256"
        },
        {
          "internalType": "string",
          "name": "hash",
          "type": "string"
        },
        {
          "internalType": "bytes",
          "name": "signature",
          "type": "bytes"
        }
      ],
      "name": "validateSignature",
      "outputs": [
        {
          "internalType": "bytes32",
          "name": "",
          "type": "bytes32"
        }
      ],
      "stateMutability": "view",
      "type": "function"
    },
    {
      "inputs": [],
      "name": "withdraw",
      "outputs": [],
      "stateMutability": "nonpayable",
      "type": "function"
    }
  ],
  "transactionHash": "0xcef0487362b8425cab4bf4ce96fe3f8b4bfbb6ef62b7cd0820906a10730a846e",
  "args": [
    "0xeebA72dcE016a06055dbD0318429053bEd738c7e",
    "ipfs://"
  ],
  "numDeployments": 1,
  "solcInputHash": "fc3307db6d30e8c45f81d8f011e07d41",
  "bytecode": "0x60806040523480156200001157600080fd5b5060405162003db838038062003db8833981016040819052620000349162000335565b806200004081620000af565b506200004c33620000c8565b600780546001600160a01b0319166001600160a01b0384161790556200007b6000620000753390565b6200011a565b620000a77f9f2df0fed2c77648de5860a4cc508cd0818c85b8b8a1ab4ceeef8d981c8956a6336200011a565b505062000472565b8051620000c490600290602084019062000279565b5050565b600480546001600160a01b038381166001600160a01b0319831681179093556040519116919082907f8be0079c531659141344cd1fd0a4f28419497f9722a3daafe3b4186f6b6457e090600090a35050565b620000c482826200013782826200016360201b620014691760201c565b60008281526006602090815260409091206200015e9183906200150b62000207821b17901c565b505050565b60008281526005602090815260408083206001600160a01b038516845290915290205460ff16620000c45760008281526005602090815260408083206001600160a01b03851684529091529020805460ff19166001179055620001c33390565b6001600160a01b0316816001600160a01b0316837f2f8788117e7eff1d82e926ec794901d17c78024a50270940304540a733656f0d60405160405180910390a45050565b60006200021e836001600160a01b03841662000227565b90505b92915050565b6000818152600183016020526040812054620002705750815460018181018455600084815260208082209093018490558454848252828601909352604090209190915562000221565b50600062000221565b828054620002879062000435565b90600052602060002090601f016020900481019282620002ab5760008555620002f6565b82601f10620002c657805160ff1916838001178555620002f6565b82800160010185558215620002f6579182015b82811115620002f6578251825591602001919060010190620002d9565b506200030492915062000308565b5090565b5b8082111562000304576000815560010162000309565b634e487b7160e01b600052604160045260246000fd5b600080604083850312156200034957600080fd5b82516001600160a01b03811681146200036157600080fd5b602084810151919350906001600160401b03808211156200038157600080fd5b818601915086601f8301126200039657600080fd5b815181811115620003ab57620003ab6200031f565b604051601f8201601f19908116603f01168101908382118183101715620003d657620003d66200031f565b816040528281528986848701011115620003ef57600080fd5b600093505b82841015620004135784840186015181850187015292850192620003f4565b82841115620004255760008684830101525b8096505050505050509250929050565b600181811c908216806200044a57607f821691505b602082108114156200046c57634e487b7160e01b600052602260045260246000fd5b50919050565b61393680620004826000396000f3fe608060405234801561001057600080fd5b50600436106102915760003560e01c806357f7789e11610160578063a22cb465116100d8578063d547741f1161008c578063f242432a11610071578063f242432a14610600578063f2fde38b14610613578063f5298aca1461062657600080fd5b8063d547741f146105b1578063e985e9c5146105c457600080fd5b8063bd85b039116100bd578063bd85b03914610557578063ca15c87314610577578063d53913931461058a57600080fd5b8063a22cb46514610531578063b419c8071461054457600080fd5b806375b238fc1161012f5780639010d07c116101145780639010d07c146104dd57806391d14854146104f0578063a217fddf1461052957600080fd5b806375b238fc146104a55780638da5cb5b146104cc57600080fd5b806357f7789e146104645780636b20c454146104775780636c19e7831461048a578063715018a61461049d57600080fd5b80632baf2acb1161020e5780633ccfd60b116101c25780634e1273f4116101a75780634e1273f41461040f5780634f558e791461042f57806356d1699b1461045157600080fd5b80633ccfd60b146103f4578063496c2d28146103fc57600080fd5b80632f2ff15d116101f35780632f2ff15d146103bb578063308b4036146103ce57806336568abe146103e157600080fd5b80632baf2acb146103955780632eb2c2d6146103a857600080fd5b80631b2ef1ca11610265578063238ac9331161024a578063238ac9331461033a578063248a9ca31461035f5780632b4e97d91461038257600080fd5b80631b2ef1ca1461031457806320d4f41b1461032757600080fd5b8062fdd58e1461029657806301ffc9a7146102bc5780630e89341c146102df57806312016ce0146102ff575b600080fd5b6102a96102a4366004612e8f565b610639565b6040519081526020015b60405180910390f35b6102cf6102ca366004612ecf565b6106e5565b60405190151581526020016102b3565b6102f26102ed366004612eec565b6106f0565b6040516102b39190612f5d565b61031261030d366004613027565b610792565b005b610312610322366004613088565b61082b565b6102a9610335366004613027565b61083a565b6007546001600160a01b03165b6040516001600160a01b0390911681526020016102b3565b6102a961036d366004612eec565b60009081526005602052604090206001015490565b6102a96103903660046130aa565b610875565b6103126103a3366004613132565b6109ad565b6103126103b63660046131fa565b610aaf565b6103126103c9366004613274565b610b4a565b6103126103dc366004613027565b610b74565b6103126103ef366004613274565b610c81565b610312610d09565b61031261040a3660046132a0565b610dc9565b61042261041d3660046132f0565b610dd5565b6040516102b391906133f6565b6102cf61043d366004612eec565b600090815260036020526040902054151590565b61031261045f3660046130aa565b610f13565b610312610472366004613409565b610fb0565b610312610485366004613446565b611014565b6103126104983660046134b0565b611099565b610312611189565b6102a97fa49807205ce4d355092ef5a8a18f56e8913cf4a201fbe287825b095693c2177581565b6004546001600160a01b0316610347565b6103476104eb366004613088565b6111ef565b6102cf6104fe366004613274565b60009182526005602090815260408084206001600160a01b0393909316845291905290205460ff1690565b6102a9600081565b61031261053f3660046134cb565b61120e565b6102cf610552366004612eec565b611219565b6102a9610565366004612eec565b60009081526003602052604090205490565b6102a9610585366004612eec565b61123f565b6102a97f9f2df0fed2c77648de5860a4cc508cd0818c85b8b8a1ab4ceeef8d981c8956a681565b6103126105bf366004613274565b611256565b6102cf6105d2366004613507565b6001600160a01b03918216600090815260016020908152604080832093909416825291909152205460ff1690565b61031261060e366004613531565b61127b565b6103126106213660046134b0565b611302565b610312610634366004613132565b6113e4565b60006001600160a01b0383166106bc5760405162461bcd60e51b815260206004820152602b60248201527f455243313135353a2062616c616e636520717565727920666f7220746865207a60448201527f65726f206164647265737300000000000000000000000000000000000000000060648201526084015b60405180910390fd5b506000818152602081815260408083206001600160a01b03861684529091529020545b92915050565b60006106df82611520565b600081815260086020526040902080546060919061070d90613596565b80601f016020809104026020016040519081016040528092919081815260200182805461073990613596565b80156107865780601f1061075b57610100808354040283529160200191610786565b820191906000526020600020905b81548152906001019060200180831161076957829003601f168201915b50505050509050919050565b8261079c81611219565b6107f85760405162461bcd60e51b815260206004820152602760248201527f74776c767874776c765f7630313a20746f6b656e206973206e6f7420646566696044820152661b9959081e595d60ca1b60648201526084016106b3565b6108148585856040518060200160405280600081525086610875565b5060606108238686868461155e565b505050505050565b6108363383836109ad565b5050565b600084848484306040516020016108559594939291906135d1565b604051602081830303815290604052805190602001209050949350505050565b6000806108da6108878888888861083a565b6040517f19457468657265756d205369676e6564204d6573736167653a0a3332000000006020820152603c8101829052600090605c01604051602081830303815290604052805190602001209050919050565b90506108ee6007546001600160a01b031690565b6001600160a01b03166109018285611694565b6001600160a01b0316146109a35760405162461bcd60e51b815260206004820152604a60248201527f74776c767874776c765f7630313a20456974686572207369676e61747572652060448201527f69732077726f6e67206f7220706172616d65746572732068617665206265656e60648201527f20636f7272757074656400000000000000000000000000000000000000000000608482015260a4016106b3565b9695505050505050565b6109d77f9f2df0fed2c77648de5860a4cc508cd0818c85b8b8a1ab4ceeef8d981c8956a6336104fe565b610a345760405162461bcd60e51b815260206004820152602860248201527f74776c767874776c765f7630313a2063616c6c657220686173206e6f206d696e60448201526774657220726f6c6560c01b60648201526084016106b3565b81610a3e81611219565b610a9a5760405162461bcd60e51b815260206004820152602760248201527f74776c767874776c765f7630313a20746f6b656e206973206e6f7420646566696044820152661b9959081e595d60ca1b60648201526084016106b3565b6060610aa88585858461155e565b5050505050565b6001600160a01b038516331480610acb5750610acb85336105d2565b610b3d5760405162461bcd60e51b815260206004820152603260248201527f455243313135353a207472616e736665722063616c6c6572206973206e6f742060448201527f6f776e6572206e6f7220617070726f766564000000000000000000000000000060648201526084016106b3565b610aa885858585856116b0565b600082815260056020526040902060010154610b6581611914565b610b6f838361191e565b505050565b610b9e7f9f2df0fed2c77648de5860a4cc508cd0818c85b8b8a1ab4ceeef8d981c8956a6336104fe565b610bfb5760405162461bcd60e51b815260206004820152602860248201527f74776c767874776c765f7630313a2063616c6c657220686173206e6f206d696e60448201526774657220726f6c6560c01b60648201526084016106b3565b82610c0581611219565b15610c625760405162461bcd60e51b815260206004820152602760248201527f74776c767874776c765f7630313a20746f6b656e20697320616c7265616479206044820152661919599a5b995960ca1b60648201526084016106b3565b6060610c708686868461155e565b825115610823576108238584611940565b6001600160a01b0381163314610cff5760405162461bcd60e51b815260206004820152602f60248201527f416363657373436f6e74726f6c3a2063616e206f6e6c792072656e6f756e636560448201527f20726f6c657320666f722073656c66000000000000000000000000000000000060648201526084016106b3565b610836828261195f565b6004546001600160a01b0316331480610d285750610d286000336104fe565b610d9a5760405162461bcd60e51b815260206004820152603060248201527f74776c767874776c765f7630313a2063616c6c6572206973206e6f742074686560448201527f206f776e6572206e6f722061646d696e0000000000000000000000000000000060648201526084016106b3565b6040514790339082156108fc029083906000818181858888f19350505050158015610836573d6000803e3d6000fd5b610b6f33848484610792565b60608151835114610e4e5760405162461bcd60e51b815260206004820152602960248201527f455243313135353a206163636f756e747320616e6420696473206c656e67746860448201527f206d69736d61746368000000000000000000000000000000000000000000000060648201526084016106b3565b6000835167ffffffffffffffff811115610e6a57610e6a612f70565b604051908082528060200260200182016040528015610e93578160200160208202803683370190505b50905060005b8451811015610f0b57610ede858281518110610eb757610eb7613615565b6020026020010151858381518110610ed157610ed1613615565b6020026020010151610639565b828281518110610ef057610ef0613615565b6020908102919091010152610f0481613641565b9050610e99565b509392505050565b83610f1d81611219565b15610f7a5760405162461bcd60e51b815260206004820152602760248201527f74776c767874776c765f7630313a20746f6b656e20697320616c7265616479206044820152661919599a5b995960ca1b60648201526084016106b3565b610f878686868686610875565b506060610f968787878461155e565b835115610fa757610fa78685611940565b50505050505050565b6004546001600160a01b0316331461100a5760405162461bcd60e51b815260206004820181905260248201527f4f776e61626c653a2063616c6c6572206973206e6f7420746865206f776e657260448201526064016106b3565b6108368282611940565b6001600160a01b038316331480611030575061103083336105d2565b61108e5760405162461bcd60e51b815260206004820152602960248201527f455243313135353a2063616c6c6572206973206e6f74206f776e6572206e6f7260448201526808185c1c1c9bdd995960ba1b60648201526084016106b3565b610b6f838383611981565b6004546001600160a01b03163314806110b857506110b86000336104fe565b61112a5760405162461bcd60e51b815260206004820152603060248201527f74776c767874776c765f7630313a2063616c6c6572206973206e6f742074686560448201527f206f776e6572206e6f722061646d696e0000000000000000000000000000000060648201526084016106b3565b600780546001600160a01b0383811673ffffffffffffffffffffffffffffffffffffffff19831681179093556040519116919082907feeb293e1f8f3a9db91ade748726387ed1352ca78f5430c5f06fe3d1e1ad5057990600090a35050565b6004546001600160a01b031633146111e35760405162461bcd60e51b815260206004820181905260248201527f4f776e61626c653a2063616c6c6572206973206e6f7420746865206f776e657260448201526064016106b3565b6111ed6000611bd8565b565b60008281526006602052604081206112079083611c37565b9392505050565b610836338383611c43565b6000818152600860205260408120805482919061123590613596565b9050119050919050565b60008181526006602052604081206106df90611d38565b60008281526005602052604090206001015461127181611914565b610b6f838361195f565b6001600160a01b038516331480611297575061129785336105d2565b6112f55760405162461bcd60e51b815260206004820152602960248201527f455243313135353a2063616c6c6572206973206e6f74206f776e6572206e6f7260448201526808185c1c1c9bdd995960ba1b60648201526084016106b3565b610aa88585858585611d42565b6004546001600160a01b0316331461135c5760405162461bcd60e51b815260206004820181905260248201527f4f776e61626c653a2063616c6c6572206973206e6f7420746865206f776e657260448201526064016106b3565b6001600160a01b0381166113d85760405162461bcd60e51b815260206004820152602660248201527f4f776e61626c653a206e6577206f776e657220697320746865207a65726f206160448201527f646472657373000000000000000000000000000000000000000000000000000060648201526084016106b3565b6113e181611bd8565b50565b6001600160a01b038316331480611400575061140083336105d2565b61145e5760405162461bcd60e51b815260206004820152602960248201527f455243313135353a2063616c6c6572206973206e6f74206f776e6572206e6f7260448201526808185c1c1c9bdd995960ba1b60648201526084016106b3565b610b6f838383611efb565b60008281526005602090815260408083206001600160a01b038516845290915290205460ff166108365760008281526005602090815260408083206001600160a01b03851684529091529020805460ff191660011790556114c73390565b6001600160a01b0316816001600160a01b0316837f2f8788117e7eff1d82e926ec794901d17c78024a50270940304540a733656f0d60405160405180910390a45050565b6000611207836001600160a01b03841661208b565b60006001600160e01b031982167f5a05180f0000000000000000000000000000000000000000000000000000000014806106df57506106df826120da565b6001600160a01b0384166115da5760405162461bcd60e51b815260206004820152602160248201527f455243313135353a206d696e7420746f20746865207a65726f2061646472657360448201527f730000000000000000000000000000000000000000000000000000000000000060648201526084016106b3565b3360006115e685612118565b905060006115f385612118565b905061160483600089858589612163565b6000868152602081815260408083206001600160a01b038b1684529091528120805487929061163490849061365c565b909155505060408051878152602081018790526001600160a01b03808a1692600092918716917fc3d58168c5ae7397731d063d5bbf3d657854427343f4c083240f7aacaa2d0f62910160405180910390a4610fa783600089898989612171565b60008060006116a38585612326565b91509150610f0b81612396565b81518351146117125760405162461bcd60e51b815260206004820152602860248201527f455243313135353a2069647320616e6420616d6f756e7473206c656e677468206044820152670dad2e6dac2e8c6d60c31b60648201526084016106b3565b6001600160a01b0384166117765760405162461bcd60e51b815260206004820152602560248201527f455243313135353a207472616e7366657220746f20746865207a65726f206164604482015264647265737360d81b60648201526084016106b3565b33611785818787878787612163565b60005b84518110156118ae5760008582815181106117a5576117a5613615565b6020026020010151905060008583815181106117c3576117c3613615565b602090810291909101810151600084815280835260408082206001600160a01b038e1683529093529190912054909150818110156118565760405162461bcd60e51b815260206004820152602a60248201527f455243313135353a20696e73756666696369656e742062616c616e636520666f60448201526939103a3930b739b332b960b11b60648201526084016106b3565b6000838152602081815260408083206001600160a01b038e8116855292528083208585039055908b1682528120805484929061189390849061365c565b92505081905550505050806118a790613641565b9050611788565b50846001600160a01b0316866001600160a01b0316826001600160a01b03167f4a39dc06d4c0dbc64b70af90fd698a233a518aa5d07e595d983b8c0526c8f7fb87876040516118fe929190613674565b60405180910390a4610823818787878787612551565b6113e1813361265c565b6119288282611469565b6000828152600660205260409020610b6f908261150b565b60008281526008602090815260409091208251610b6f92840190612dda565b61196982826126dc565b6000828152600660205260409020610b6f908261275f565b6001600160a01b0383166119e35760405162461bcd60e51b815260206004820152602360248201527f455243313135353a206275726e2066726f6d20746865207a65726f206164647260448201526265737360e81b60648201526084016106b3565b8051825114611a455760405162461bcd60e51b815260206004820152602860248201527f455243313135353a2069647320616e6420616d6f756e7473206c656e677468206044820152670dad2e6dac2e8c6d60c31b60648201526084016106b3565b6000339050611a6881856000868660405180602001604052806000815250612163565b60005b8351811015611b69576000848281518110611a8857611a88613615565b602002602001015190506000848381518110611aa657611aa6613615565b602090810291909101810151600084815280835260408082206001600160a01b038c168352909352919091205490915081811015611b325760405162461bcd60e51b8152602060048201526024808201527f455243313135353a206275726e20616d6f756e7420657863656564732062616c604482015263616e636560e01b60648201526084016106b3565b6000928352602083815260408085206001600160a01b038b1686529091529092209103905580611b6181613641565b915050611a6b565b5060006001600160a01b0316846001600160a01b0316826001600160a01b03167f4a39dc06d4c0dbc64b70af90fd698a233a518aa5d07e595d983b8c0526c8f7fb8686604051611bba929190613674565b60405180910390a46040805160208101909152600090525b50505050565b600480546001600160a01b0383811673ffffffffffffffffffffffffffffffffffffffff19831681179093556040519116919082907f8be0079c531659141344cd1fd0a4f28419497f9722a3daafe3b4186f6b6457e090600090a35050565b60006112078383612774565b816001600160a01b0316836001600160a01b03161415611ccb5760405162461bcd60e51b815260206004820152602960248201527f455243313135353a2073657474696e6720617070726f76616c2073746174757360448201527f20666f722073656c66000000000000000000000000000000000000000000000060648201526084016106b3565b6001600160a01b03838116600081815260016020908152604080832094871680845294825291829020805460ff191686151590811790915591519182527f17307eab39ab6107e8899845ad3d59bd9653f200f220920489ca2b5937696c31910160405180910390a3505050565b60006106df825490565b6001600160a01b038416611da65760405162461bcd60e51b815260206004820152602560248201527f455243313135353a207472616e7366657220746f20746865207a65726f206164604482015264647265737360d81b60648201526084016106b3565b336000611db285612118565b90506000611dbf85612118565b9050611dcf838989858589612163565b6000868152602081815260408083206001600160a01b038c16845290915290205485811015611e535760405162461bcd60e51b815260206004820152602a60248201527f455243313135353a20696e73756666696369656e742062616c616e636520666f60448201526939103a3930b739b332b960b11b60648201526084016106b3565b6000878152602081815260408083206001600160a01b038d8116855292528083208985039055908a16825281208054889290611e9090849061365c565b909155505060408051888152602081018890526001600160a01b03808b16928c821692918816917fc3d58168c5ae7397731d063d5bbf3d657854427343f4c083240f7aacaa2d0f62910160405180910390a4611ef0848a8a8a8a8a612171565b505050505050505050565b6001600160a01b038316611f5d5760405162461bcd60e51b815260206004820152602360248201527f455243313135353a206275726e2066726f6d20746865207a65726f206164647260448201526265737360e81b60648201526084016106b3565b336000611f6984612118565b90506000611f7684612118565b9050611f9683876000858560405180602001604052806000815250612163565b6000858152602081815260408083206001600160a01b038a168452909152902054848110156120135760405162461bcd60e51b8152602060048201526024808201527f455243313135353a206275726e20616d6f756e7420657863656564732062616c604482015263616e636560e01b60648201526084016106b3565b6000868152602081815260408083206001600160a01b038b81168086529184528285208a8703905582518b81529384018a90529092908816917fc3d58168c5ae7397731d063d5bbf3d657854427343f4c083240f7aacaa2d0f62910160405180910390a4604080516020810190915260009052610fa7565b60008181526001830160205260408120546120d2575081546001818101845560008481526020808220909301849055845484825282860190935260409020919091556106df565b5060006106df565b60006001600160e01b031982167f7965db0b0000000000000000000000000000000000000000000000000000000014806106df57506106df8261279e565b6040805160018082528183019092526060916000919060208083019080368337019050509050828160008151811061215257612152613615565b602090810291909101015292915050565b610823868686868686612839565b6001600160a01b0384163b156108235760405163f23a6e6160e01b81526001600160a01b0385169063f23a6e61906121b590899089908890889088906004016136a2565b602060405180830381600087803b1580156121cf57600080fd5b505af19250505080156121ff575060408051601f3d908101601f191682019092526121fc918101906136e5565b60015b6122b55761220b613702565b806308c379a01415612245575061222061371e565b8061222b5750612247565b8060405162461bcd60e51b81526004016106b39190612f5d565b505b60405162461bcd60e51b815260206004820152603460248201527f455243313135353a207472616e7366657220746f206e6f6e204552433131353560448201527f526563656976657220696d706c656d656e74657200000000000000000000000060648201526084016106b3565b6001600160e01b0319811663f23a6e6160e01b14610fa75760405162461bcd60e51b815260206004820152602860248201527f455243313135353a204552433131353552656365697665722072656a656374656044820152676420746f6b656e7360c01b60648201526084016106b3565b60008082516041141561235d5760208301516040840151606085015160001a612351878285856129c7565b9450945050505061238f565b825160401415612387576020830151604084015161237c868383612ab4565b93509350505061238f565b506000905060025b9250929050565b60008160048111156123aa576123aa6137a8565b14156123b35750565b60018160048111156123c7576123c76137a8565b14156124155760405162461bcd60e51b815260206004820152601860248201527f45434453413a20696e76616c6964207369676e6174757265000000000000000060448201526064016106b3565b6002816004811115612429576124296137a8565b14156124775760405162461bcd60e51b815260206004820152601f60248201527f45434453413a20696e76616c6964207369676e6174757265206c656e6774680060448201526064016106b3565b600381600481111561248b5761248b6137a8565b14156124e45760405162461bcd60e51b815260206004820152602260248201527f45434453413a20696e76616c6964207369676e6174757265202773272076616c604482015261756560f01b60648201526084016106b3565b60048160048111156124f8576124f86137a8565b14156113e15760405162461bcd60e51b815260206004820152602260248201527f45434453413a20696e76616c6964207369676e6174757265202776272076616c604482015261756560f01b60648201526084016106b3565b6001600160a01b0384163b156108235760405163bc197c8160e01b81526001600160a01b0385169063bc197c819061259590899089908890889088906004016137be565b602060405180830381600087803b1580156125af57600080fd5b505af19250505080156125df575060408051601f3d908101601f191682019092526125dc918101906136e5565b60015b6125eb5761220b613702565b6001600160e01b0319811663bc197c8160e01b14610fa75760405162461bcd60e51b815260206004820152602860248201527f455243313135353a204552433131353552656365697665722072656a656374656044820152676420746f6b656e7360c01b60648201526084016106b3565b60008281526005602090815260408083206001600160a01b038516845290915290205460ff166108365761269a816001600160a01b03166014612b06565b6126a5836020612b06565b6040516020016126b692919061381c565b60408051601f198184030181529082905262461bcd60e51b82526106b391600401612f5d565b60008281526005602090815260408083206001600160a01b038516845290915290205460ff16156108365760008281526005602090815260408083206001600160a01b0385168085529252808320805460ff1916905551339285917ff6391f5c32d9c69d2a47ea670b442974b53935d1edc7fd64eb21e047a839171b9190a45050565b6000611207836001600160a01b038416612ce7565b600082600001828154811061278b5761278b613615565b9060005260206000200154905092915050565b60006001600160e01b031982167fd9b67a2600000000000000000000000000000000000000000000000000000000148061280157506001600160e01b031982167f0e89341c00000000000000000000000000000000000000000000000000000000145b806106df57507f01ffc9a7000000000000000000000000000000000000000000000000000000006001600160e01b03198316146106df565b6001600160a01b0385166128c05760005b83518110156128be5782818151811061286557612865613615565b60200260200101516003600086848151811061288357612883613615565b6020026020010151815260200190815260200160002060008282546128a8919061365c565b909155506128b7905081613641565b905061284a565b505b6001600160a01b0384166108235760005b8351811015610fa75760008482815181106128ee576128ee613615565b60200260200101519050600084838151811061290c5761290c613615565b60200260200101519050600060036000848152602001908152602001600020549050818110156129a45760405162461bcd60e51b815260206004820152602860248201527f455243313135353a206275726e20616d6f756e74206578636565647320746f7460448201527f616c537570706c7900000000000000000000000000000000000000000000000060648201526084016106b3565b600092835260036020526040909220910390556129c081613641565b90506128d1565b6000807f7fffffffffffffffffffffffffffffff5d576e7357a4501ddfe92f46681b20a08311156129fe5750600090506003612aab565b8460ff16601b14158015612a1657508460ff16601c14155b15612a275750600090506004612aab565b6040805160008082526020820180845289905260ff881692820192909252606081018690526080810185905260019060a0016020604051602081039080840390855afa158015612a7b573d6000803e3d6000fd5b5050604051601f1901519150506001600160a01b038116612aa457600060019250925050612aab565b9150600090505b94509492505050565b6000807f7fffffffffffffffffffffffffffffffffffffffffffffffffffffffffffffff831681612aea60ff86901c601b61365c565b9050612af8878288856129c7565b935093505050935093915050565b60606000612b1583600261389d565b612b2090600261365c565b67ffffffffffffffff811115612b3857612b38612f70565b6040519080825280601f01601f191660200182016040528015612b62576020820181803683370190505b5090507f300000000000000000000000000000000000000000000000000000000000000081600081518110612b9957612b99613615565b60200101906001600160f81b031916908160001a9053507f780000000000000000000000000000000000000000000000000000000000000081600181518110612be457612be4613615565b60200101906001600160f81b031916908160001a9053506000612c0884600261389d565b612c1390600161365c565b90505b6001811115612c98577f303132333435363738396162636465660000000000000000000000000000000085600f1660108110612c5457612c54613615565b1a60f81b828281518110612c6a57612c6a613615565b60200101906001600160f81b031916908160001a90535060049490941c93612c91816138bc565b9050612c16565b5083156112075760405162461bcd60e51b815260206004820181905260248201527f537472696e67733a20686578206c656e67746820696e73756666696369656e7460448201526064016106b3565b60008181526001830160205260408120548015612dd0576000612d0b6001836138d3565b8554909150600090612d1f906001906138d3565b9050818114612d84576000866000018281548110612d3f57612d3f613615565b9060005260206000200154905080876000018481548110612d6257612d62613615565b6000918252602080832090910192909255918252600188019052604090208390555b8554869080612d9557612d956138ea565b6001900381819060005260206000200160009055905585600101600086815260200190815260200160002060009055600193505050506106df565b60009150506106df565b828054612de690613596565b90600052602060002090601f016020900481019282612e085760008555612e4e565b82601f10612e2157805160ff1916838001178555612e4e565b82800160010185558215612e4e579182015b82811115612e4e578251825591602001919060010190612e33565b50612e5a929150612e5e565b5090565b5b80821115612e5a5760008155600101612e5f565b80356001600160a01b0381168114612e8a57600080fd5b919050565b60008060408385031215612ea257600080fd5b612eab83612e73565b946020939093013593505050565b6001600160e01b0319811681146113e157600080fd5b600060208284031215612ee157600080fd5b813561120781612eb9565b600060208284031215612efe57600080fd5b5035919050565b60005b83811015612f20578181015183820152602001612f08565b83811115611bd25750506000910152565b60008151808452612f49816020860160208601612f05565b601f01601f19169290920160200192915050565b6020815260006112076020830184612f31565b634e487b7160e01b600052604160045260246000fd5b601f8201601f1916810167ffffffffffffffff81118282101715612fac57612fac612f70565b6040525050565b600082601f830112612fc457600080fd5b813567ffffffffffffffff811115612fde57612fde612f70565b604051612ff5601f8301601f191660200182612f86565b81815284602083860101111561300a57600080fd5b816020850160208301376000918101602001919091529392505050565b6000806000806080858703121561303d57600080fd5b61304685612e73565b93506020850135925060408501359150606085013567ffffffffffffffff81111561307057600080fd5b61307c87828801612fb3565b91505092959194509250565b6000806040838503121561309b57600080fd5b50508035926020909101359150565b600080600080600060a086880312156130c257600080fd5b6130cb86612e73565b94506020860135935060408601359250606086013567ffffffffffffffff808211156130f657600080fd5b61310289838a01612fb3565b9350608088013591508082111561311857600080fd5b5061312588828901612fb3565b9150509295509295909350565b60008060006060848603121561314757600080fd5b61315084612e73565b95602085013595506040909401359392505050565b600067ffffffffffffffff82111561317f5761317f612f70565b5060051b60200190565b600082601f83011261319a57600080fd5b813560206131a782613165565b6040516131b48282612f86565b83815260059390931b85018201928281019150868411156131d457600080fd5b8286015b848110156131ef57803583529183019183016131d8565b509695505050505050565b600080600080600060a0868803121561321257600080fd5b61321b86612e73565b945061322960208701612e73565b9350604086013567ffffffffffffffff8082111561324657600080fd5b61325289838a01613189565b9450606088013591508082111561326857600080fd5b61310289838a01613189565b6000806040838503121561328757600080fd5b8235915061329760208401612e73565b90509250929050565b6000806000606084860312156132b557600080fd5b8335925060208401359150604084013567ffffffffffffffff8111156132da57600080fd5b6132e686828701612fb3565b9150509250925092565b6000806040838503121561330357600080fd5b823567ffffffffffffffff8082111561331b57600080fd5b818501915085601f83011261332f57600080fd5b8135602061333c82613165565b6040516133498282612f86565b83815260059390931b850182019282810191508984111561336957600080fd5b948201945b8386101561338e5761337f86612e73565b8252948201949082019061336e565b965050860135925050808211156133a457600080fd5b506133b185828601613189565b9150509250929050565b600081518084526020808501945080840160005b838110156133eb578151875295820195908201906001016133cf565b509495945050505050565b60208152600061120760208301846133bb565b6000806040838503121561341c57600080fd5b82359150602083013567ffffffffffffffff81111561343a57600080fd5b6133b185828601612fb3565b60008060006060848603121561345b57600080fd5b61346484612e73565b9250602084013567ffffffffffffffff8082111561348157600080fd5b61348d87838801613189565b935060408601359150808211156134a357600080fd5b506132e686828701613189565b6000602082840312156134c257600080fd5b61120782612e73565b600080604083850312156134de57600080fd5b6134e783612e73565b9150602083013580151581146134fc57600080fd5b809150509250929050565b6000806040838503121561351a57600080fd5b61352383612e73565b915061329760208401612e73565b600080600080600060a0868803121561354957600080fd5b61355286612e73565b945061356060208701612e73565b93506040860135925060608601359150608086013567ffffffffffffffff81111561358a57600080fd5b61312588828901612fb3565b600181811c908216806135aa57607f821691505b602082108114156135cb57634e487b7160e01b600052602260045260246000fd5b50919050565b60006001600160a01b03808816835286602084015285604084015260a0606084015261360060a0840186612f31565b91508084166080840152509695505050505050565b634e487b7160e01b600052603260045260246000fd5b634e487b7160e01b600052601160045260246000fd5b60006000198214156136555761365561362b565b5060010190565b6000821982111561366f5761366f61362b565b500190565b60408152600061368760408301856133bb565b828103602084015261369981856133bb565b95945050505050565b60006001600160a01b03808816835280871660208401525084604083015283606083015260a060808301526136da60a0830184612f31565b979650505050505050565b6000602082840312156136f757600080fd5b815161120781612eb9565b600060033d111561371b5760046000803e5060005160e01c5b90565b600060443d101561372c5790565b6040516003193d81016004833e81513d67ffffffffffffffff816024840111818411171561375c57505050505090565b82850191508151818111156137745750505050505090565b843d870101602082850101111561378e5750505050505090565b61379d60208286010187612f86565b509095945050505050565b634e487b7160e01b600052602160045260246000fd5b60006001600160a01b03808816835280871660208401525060a060408301526137ea60a08301866133bb565b82810360608401526137fc81866133bb565b905082810360808401526138108185612f31565b98975050505050505050565b7f416363657373436f6e74726f6c3a206163636f756e7420000000000000000000815260008351613854816017850160208801612f05565b7f206973206d697373696e6720726f6c65200000000000000000000000000000006017918401918201528351613891816028840160208801612f05565b01602801949350505050565b60008160001904831182151516156138b7576138b761362b565b500290565b6000816138cb576138cb61362b565b506000190190565b6000828210156138e5576138e561362b565b500390565b634e487b7160e01b600052603160045260246000fdfea2646970667358221220844b3d68df323635a5ed2cbadbb4eb130bed5e2f049f8a888a378568c5c57f4364736f6c63430008090033",
  "devdoc": {
    "kind": "dev",
    "methods": {
      "balanceOf(address,uint256)": {
        "details": "See {IERC1155-balanceOf}. Requirements: - `account` cannot be the zero address."
      },
      "balanceOfBatch(address[],uint256[])": {
        "details": "See {IERC1155-balanceOfBatch}. Requirements: - `accounts` and `ids` must have the same length."
      },
      "createMessage(address,uint256,uint256,string)": {
        "params": {
          "to": "the beneficiary",
          "tokenUri": "The tokenUri"
        },
        "returns": {
          "_0": "the message to sign"
        }
      },
      "exists(uint256)": {
        "details": "Indicates whether any token exist with a given id, or not."
      },
      "getRoleAdmin(bytes32)": {
        "details": "Returns the admin role that controls `role`. See {grantRole} and {revokeRole}. To change a role's admin, use {_setRoleAdmin}."
      },
      "getRoleMember(bytes32,uint256)": {
        "details": "Returns one of the accounts that have `role`. `index` must be a value between 0 and {getRoleMemberCount}, non-inclusive. Role bearers are not sorted in any particular way, and their ordering may change at any point. WARNING: When using {getRoleMember} and {getRoleMemberCount}, make sure you perform all queries on the same block. See the following https://forum.openzeppelin.com/t/iterating-over-elements-on-enumerableset-in-openzeppelin-contracts/2296[forum post] for more information."
      },
      "getRoleMemberCount(bytes32)": {
        "details": "Returns the number of accounts that have `role`. Can be used together with {getRoleMember} to enumerate all bearers of a role."
      },
      "grantRole(bytes32,address)": {
        "details": "Grants `role` to `account`. If `account` had not been already granted `role`, emits a {RoleGranted} event. Requirements: - the caller must have ``role``'s admin role."
      },
      "hasRole(bytes32,address)": {
        "details": "Returns `true` if `account` has been granted `role`."
      },
      "isApprovedForAll(address,address)": {
        "details": "See {IERC1155-isApprovedForAll}."
      },
      "owner()": {
        "details": "Returns the address of the current owner."
      },
      "renounceOwnership()": {
        "details": "Leaves the contract without owner. It will not be possible to call `onlyOwner` functions anymore. Can only be called by the current owner. NOTE: Renouncing ownership will leave the contract without an owner, thereby removing any functionality that is only available to the owner."
      },
      "renounceRole(bytes32,address)": {
        "details": "Revokes `role` from the calling account. Roles are often managed via {grantRole} and {revokeRole}: this function's purpose is to provide a mechanism for accounts to lose their privileges if they are compromised (such as when a trusted device is misplaced). If the calling account had been revoked `role`, emits a {RoleRevoked} event. Requirements: - the caller must be `account`."
      },
      "revokeRole(bytes32,address)": {
        "details": "Revokes `role` from `account`. If `account` had been granted `role`, emits a {RoleRevoked} event. Requirements: - the caller must have ``role``'s admin role."
      },
      "safeBatchTransferFrom(address,address,uint256[],uint256[],bytes)": {
        "details": "See {IERC1155-safeBatchTransferFrom}."
      },
      "safeTransferFrom(address,address,uint256,uint256,bytes)": {
        "details": "See {IERC1155-safeTransferFrom}."
      },
      "setApprovalForAll(address,bool)": {
        "details": "See {IERC1155-setApprovalForAll}."
      },
      "signer()": {
        "returns": {
          "_0": "the signer address"
        }
      },
      "totalSupply(uint256)": {
        "details": "Total amount of tokens in with a given id."
      },
      "transferOwnership(address)": {
        "details": "Transfers ownership of the contract to a new account (`newOwner`). Can only be called by the current owner."
      },
      "validateSignature(address,uint256,uint256,string,bytes)": {
        "details": "it verifies that parameters coming from the UI were not corrupted by a middlemen",
        "params": {
          "hash": "The IPFS hash",
          "signature": "the signature by the allowance signer wallet",
          "tokenId": "the tokenID in question"
        },
        "returns": {
          "_0": "the message to mark as used"
        }
      }
    },
    "version": 1
  },
  "userdoc": {
    "kind": "user",
    "methods": {
      "createMessage(address,uint256,uint256,string)": {
        "notice": "Helper that creates the message that signer needs to sign to allow a mint         this is usually also used when creating the allowances, to ensure \"message\"         is the same"
      },
      "signer()": {
        "notice": "Helper to know signers address"
      },
      "validateSignature(address,uint256,uint256,string,bytes)": {
        "notice": "This function verifies that the current request is valid"
      }
    },
    "version": 1
  },
  "storageLayout": {
    "storage": [
      {
        "astId": 765,
        "contract": "contracts/nft/twlvxtwlv_v01.sol:twlvxtwlv_v01",
        "label": "_balances",
        "offset": 0,
        "slot": "0",
        "type": "t_mapping(t_uint256,t_mapping(t_address,t_uint256))"
      },
      {
        "astId": 771,
        "contract": "contracts/nft/twlvxtwlv_v01.sol:twlvxtwlv_v01",
        "label": "_operatorApprovals",
        "offset": 0,
        "slot": "1",
        "type": "t_mapping(t_address,t_mapping(t_address,t_bool))"
      },
      {
        "astId": 773,
        "contract": "contracts/nft/twlvxtwlv_v01.sol:twlvxtwlv_v01",
        "label": "_uri",
        "offset": 0,
        "slot": "2",
        "type": "t_string_storage"
      },
      {
        "astId": 2204,
        "contract": "contracts/nft/twlvxtwlv_v01.sol:twlvxtwlv_v01",
        "label": "_totalSupply",
        "offset": 0,
        "slot": "3",
        "type": "t_mapping(t_uint256,t_uint256)"
      },
      {
        "astId": 550,
        "contract": "contracts/nft/twlvxtwlv_v01.sol:twlvxtwlv_v01",
        "label": "_owner",
        "offset": 0,
        "slot": "4",
        "type": "t_address"
      },
      {
        "astId": 24,
        "contract": "contracts/nft/twlvxtwlv_v01.sol:twlvxtwlv_v01",
        "label": "_roles",
        "offset": 0,
        "slot": "5",
        "type": "t_mapping(t_bytes32,t_struct(RoleData)19_storage)"
      },
      {
        "astId": 338,
        "contract": "contracts/nft/twlvxtwlv_v01.sol:twlvxtwlv_v01",
        "label": "_roleMembers",
        "offset": 0,
        "slot": "6",
        "type": "t_mapping(t_bytes32,t_struct(AddressSet)5306_storage)"
      },
      {
        "astId": 7849,
        "contract": "contracts/nft/twlvxtwlv_v01.sol:twlvxtwlv_v01",
        "label": "_signer",
        "offset": 0,
        "slot": "7",
        "type": "t_address"
      },
      {
        "astId": 7919,
        "contract": "contracts/nft/twlvxtwlv_v01.sol:twlvxtwlv_v01",
        "label": "_tokenUris",
        "offset": 0,
        "slot": "8",
        "type": "t_mapping(t_uint256,t_string_storage)"
      }
    ],
    "types": {
      "t_address": {
        "encoding": "inplace",
        "label": "address",
        "numberOfBytes": "20"
      },
      "t_array(t_bytes32)dyn_storage": {
        "base": "t_bytes32",
        "encoding": "dynamic_array",
        "label": "bytes32[]",
        "numberOfBytes": "32"
      },
      "t_bool": {
        "encoding": "inplace",
        "label": "bool",
        "numberOfBytes": "1"
      },
      "t_bytes32": {
        "encoding": "inplace",
        "label": "bytes32",
        "numberOfBytes": "32"
      },
      "t_mapping(t_address,t_bool)": {
        "encoding": "mapping",
        "key": "t_address",
        "label": "mapping(address => bool)",
        "numberOfBytes": "32",
        "value": "t_bool"
      },
      "t_mapping(t_address,t_mapping(t_address,t_bool))": {
        "encoding": "mapping",
        "key": "t_address",
        "label": "mapping(address => mapping(address => bool))",
        "numberOfBytes": "32",
        "value": "t_mapping(t_address,t_bool)"
      },
      "t_mapping(t_address,t_uint256)": {
        "encoding": "mapping",
        "key": "t_address",
        "label": "mapping(address => uint256)",
        "numberOfBytes": "32",
        "value": "t_uint256"
      },
      "t_mapping(t_bytes32,t_struct(AddressSet)5306_storage)": {
        "encoding": "mapping",
        "key": "t_bytes32",
        "label": "mapping(bytes32 => struct EnumerableSet.AddressSet)",
        "numberOfBytes": "32",
        "value": "t_struct(AddressSet)5306_storage"
      },
      "t_mapping(t_bytes32,t_struct(RoleData)19_storage)": {
        "encoding": "mapping",
        "key": "t_bytes32",
        "label": "mapping(bytes32 => struct AccessControl.RoleData)",
        "numberOfBytes": "32",
        "value": "t_struct(RoleData)19_storage"
      },
      "t_mapping(t_bytes32,t_uint256)": {
        "encoding": "mapping",
        "key": "t_bytes32",
        "label": "mapping(bytes32 => uint256)",
        "numberOfBytes": "32",
        "value": "t_uint256"
      },
      "t_mapping(t_uint256,t_mapping(t_address,t_uint256))": {
        "encoding": "mapping",
        "key": "t_uint256",
        "label": "mapping(uint256 => mapping(address => uint256))",
        "numberOfBytes": "32",
        "value": "t_mapping(t_address,t_uint256)"
      },
      "t_mapping(t_uint256,t_string_storage)": {
        "encoding": "mapping",
        "key": "t_uint256",
        "label": "mapping(uint256 => string)",
        "numberOfBytes": "32",
        "value": "t_string_storage"
      },
      "t_mapping(t_uint256,t_uint256)": {
        "encoding": "mapping",
        "key": "t_uint256",
        "label": "mapping(uint256 => uint256)",
        "numberOfBytes": "32",
        "value": "t_uint256"
      },
      "t_string_storage": {
        "encoding": "bytes",
        "label": "string",
        "numberOfBytes": "32"
      },
      "t_struct(AddressSet)5306_storage": {
        "encoding": "inplace",
        "label": "struct EnumerableSet.AddressSet",
        "members": [
          {
            "astId": 5305,
            "contract": "contracts/nft/twlvxtwlv_v01.sol:twlvxtwlv_v01",
            "label": "_inner",
            "offset": 0,
            "slot": "0",
            "type": "t_struct(Set)5005_storage"
          }
        ],
        "numberOfBytes": "64"
      },
      "t_struct(RoleData)19_storage": {
        "encoding": "inplace",
        "label": "struct AccessControl.RoleData",
        "members": [
          {
            "astId": 16,
            "contract": "contracts/nft/twlvxtwlv_v01.sol:twlvxtwlv_v01",
            "label": "members",
            "offset": 0,
            "slot": "0",
            "type": "t_mapping(t_address,t_bool)"
          },
          {
            "astId": 18,
            "contract": "contracts/nft/twlvxtwlv_v01.sol:twlvxtwlv_v01",
            "label": "adminRole",
            "offset": 0,
            "slot": "1",
            "type": "t_bytes32"
          }
        ],
        "numberOfBytes": "64"
      },
      "t_struct(Set)5005_storage": {
        "encoding": "inplace",
        "label": "struct EnumerableSet.Set",
        "members": [
          {
            "astId": 5000,
            "contract": "contracts/nft/twlvxtwlv_v01.sol:twlvxtwlv_v01",
            "label": "_values",
            "offset": 0,
            "slot": "0",
            "type": "t_array(t_bytes32)dyn_storage"
          },
          {
            "astId": 5004,
            "contract": "contracts/nft/twlvxtwlv_v01.sol:twlvxtwlv_v01",
            "label": "_indexes",
            "offset": 0,
            "slot": "1",
            "type": "t_mapping(t_bytes32,t_uint256)"
          }
        ],
        "numberOfBytes": "64"
      },
      "t_uint256": {
        "encoding": "inplace",
        "label": "uint256",
        "numberOfBytes": "32"
      }
    }
  }
}